:1000000000800010FD000000A90E0000AB0E0000F3
:1000100000000000000000000000000000000000E0
:10002000000000000000000000000000AD0E000015
:100030000000000000000000AF0E00009D50000016
:10004000B10E0000B10E0000B10E0000B10E0000B4
:10005000B10E0000B10E0000B10E0000B10E0000A4
:10006000B10E0000B10E0000B10E0000B10E000094
:10007000B10E0000B10E0000B10E0000B10E000084
:10008000B10E0000B10E0000594C0000B10E00008E
:10009000B10E0000B10E0000B10E0000B10E000064
:1000A000B10E0000B10E0000B10E0000B10E000054
:1000B000B10E0000B10E0000B10E00000000000003
:1000C00000930000000100109C000000009300005D
:1000D000000000200000000000930000004000200D
:1000E000000000009C0100106823000000000020B8
:1000F00000000000004000200000000010B5114C7E
:10010000114B9C4207D2206861680C34231F1A6887
:1001100000F0CFFEF4E70D4B9C4205D220686168E9
:1001200000F0D0FE0834F6E700F02CFE084B002B60
:1001300002D000E000BFFEE705F0AAFA05F0D0F912
:10014000F9E7C046C0000000E4000000FC00000029
:100150000000000010B5064C2378002B07D1054B9A
:10016000002B02D0044800E000BF0123237010BD23
:100170009C010010000000000093000008B5084B2F
:10018000002B03D00748084900E000BF0748036878
:10019000002B03D0064B002B00D0984708BDC0466B
:1001A0000000000000930000A00100109C0100105E
:1001B0000000000008B5011C014800F083FD08BDE7
:1001C0006402001008B50348FF2100F07BFDC0B2B7
:1001D00008BDC04664020010F8B543B2041C0D1CF3
:1001E000002B07DA77200021FFF7F6FF012832D82D
:1001F0007F231C40A02688239B0136068027F750CA
:10020000FFF7E0FF8A239B01F750FFF7DBFF201C7D
:10021000FFF7D0FF280EFFF7CDFF280CC0B2FFF785
:10022000C9FF280AC0B2FFF7C5FFE8B2FFF7C2FF57
:10023000402C04D08720482C02D0012000E09520DB
:10024000FFF7B8FF0A24FFF7BDFF030603D5013C03
:10025000E4B2002CF7D1F8BD73B58823404DA0243B
:100260009B0180222406E250281C3E4900F020FD1C
:10027000281C0821002200F00FFD84239B01E35875
:100280006425013DEDB2FFF79DFF002DF9D140201F
:10029000291CFFF7A1FF041E012C35D1D5214820D0
:1002A0004900FFF799FF012815D1FFF78BFF01AE39
:1002B000A8550135042DF8D1B378012B24D1F3785A
:1002C000AA2B21D1284C8021C905E920FFF784FF02
:1002D000011E3BD11AE0E920291CFFF77DFF4126D2
:1002E000012801D80224E926204D301C0021FFF707
:1002F00073FF00282FD1002D06D0802150208900C7
:10030000FFF76AFF002813D0002411E0002CFBD077
:100310007A20FFF761FF0028F6D1041CFFF752FF97
:1003200030550134042CF9D133785A0600D50C2409
:100330000F4BA0221C70882380219B011206D150F4
:10034000FFF740FF60426041C0B276BD013CA4B2FD
:10035000002CD9D0B7E7013DADB2002DD4D0C4E711
:1003600064020010002D3101E02E0000A8610000A1
:10037000B8010010F8B51D1C234B071C1B78141C7A
:100380001A0700D449025120FFF726FF002801D0A8
:1003900001262FE01D4EFFF715FFFF2804D1013E77
:1003A000B6B2002EF4D0F6E7FE28F1D1184E761B37
:1003B000361BB6B2002C02D13C1E05D10EE0013C2A
:1003C000FFF700FFA4B2F5E7FFF7FCFE7A192070F3
:1003D000013492B2A3B29A42F6D105E0013DADB22A
:1003E000FFF7F0FE002DF9D1013EB6B2FFF7EAFEAD
:1003F000002EF9D18823A02280219B011206D15022
:10040000FFF7E0FE301CF8BDB801001030750000A9
:1004100002020000064B821E1B680020D9680239C8
:100420008A4203D258789B695043C0187047C0462F
:10043000BC0100100F4B10B51A68002303808368BD
:10044000041C012B14D0D16801208B4211D2002B47
:1004500003D11178032900D15369E360002B03D045
:10046000181CFFF7D7FF00E050692061002000E072
:10047000181C10BDBC010010F0B5324B85B0041C37
:100480001D6801285AD9EA68904257D22E78022E68
:1004900032D0032E40D0012E50D183B25A08D31847
:1004A0009BB2DA055B0A0193274BD20D03AF296992
:1004B0009A4204D0019B381C591802230EE0019B7C
:1004C000381C5918331CFFF755FF021E36D1296915
:1004D000019B01316846C9180D30331CFFF74AFFF4
:1004E00000282BD17B7838781B0203431811E207D0
:1004F00025D41805000D22E02B69010AC4B203AF10
:10050000C9186200381C331CFFF734FF002815D1CE
:1005100078783B7800020FE02B697F22C10903AE97
:100520001440C918A200301C0423FFF723FF002841
:1005300004D1707833780002184300E0012005B040
:10054000F0BDC046BC010010FF01000070B5058879
:10055000154B0135ADB2041C1E68002D01D10320DE
:1005600021E00369002BFAD02A0718D10133036177
:10057000C068002803D1B388AB42F0D90FE072788D
:100580002B09013A1A420AD1FFF776FF012809D94F
:10059000F3689842E3D2E060FFF73CFF20612580DA
:1005A000002000E0012070BDBC010010F8B5041C63
:1005B0000D1C2B78202B01D10135FAE72F3B5A4235
:1005C00053410026ED18A6602B78202B2BD8201C39
:1005D000FFF730FF3E4B1B689B681E7076E0337858
:1005E000002B65D0F27A082313405AD16268F15C7F
:1005F0000133D01801380078884252D10B2BF6D144
:10060000D37A002B61D13B689B68DA7AD1065AD540
:100610005A7D197D12020A43D97E9B7E090212047B
:100620000B431343A3606068021C031C0B3293420C
:1006300003D0202119700133F9E70022131C08218F
:100640005E1CEB5CF6B2202B10D92F2B0ED02E2B7C
:1006500034D08A420AD21F1C613F192F01D8203B97
:10066000DBB2571C8354FAB2331CE9E70022202185
:1006700099425241C272201CAD19FFF7DBFE0028DF
:1006800014D1134F3B689E6822880F231A405201F1
:10069000301C21692023FFF76DFE00289FD0012028
:1006A00014E0201CFFF752FF0028EDD003280DD1E5
:1006B0006368D87A43425841033007E00829D5D10E
:1006C0000A1C0B21D0E7042000E00020F8BDC04642
:1006D000BC01001030B51B4B011C1D6891B00620F9
:1006E000002D2CD0002308ACAB70AC6000AB03A88D
:1006F0000493FFF75BFF002821D123780320002B10
:100700001DD0E27A1023134019D1617D227D0902A8
:100710001143E27EA07E1202090402430A436A6288
:10072000E17FA27F090612040A43217F181C0A43B5
:10073000617FEB6109020A432A620122AA7011B0AB
:1007400030BDC046BC010010F7B5314B01901C68AC
:1007500000230D1C171C13809C4257D0A378052042
:10076000D90754D5226AE169531A9D4200D99DB236
:10077000019A0092002D43D0E669F3051BD1700A5F
:10078000617805F0F9F800290BD1002E01D1606ADB
:1007900002E0A06AFFF770FE012833D90023A062AF
:1007A000E370A06AFFF736FE00282BD0E3785A1CCE
:1007B000C318E270E362E3692E1CDA058023D10DD1
:1007C0009B005B1A9BB29D4200D91E1C01980099A8
:1007D000431E9841B6B240420840D20DE16A331C34
:1007E000FFF7C8FD00280DD1E269AD1B9319E36145
:1007F000009BADB29B1900933B88F6183E80B9E789
:10080000281C04E00023A370012000E00620FEBDA8
:10081000BC0100102A4BF7B51C68002C4CD0A27804
:100820000523D10749D5236A051E9D4200D91D1C09
:100830000022E369E261954238D066787602002BA7
:1008400012D0311C681E5F1E05F052F8311C019059
:10085000381C05F04DF8019A824205D373423B40A3
:10086000E361ED1AA06A0EE0606AA0620BE0FFF798
:1008700003FE01281CD9E368984219D2E169A062FD
:100880008B19E361AD1BB542F1D8E2695319E361FD
:10089000FFF7C0FD00280BD06B0ADAB2ED0501D1DD
:1008A000E27003E001321818E270E062002304E015
:1008B0000023A370012300E00623181CFEBDC046E0
:1008C000BC01001030B5154B051C1B688DB006200F
:1008D000002B20D004AC9C6001AB6B60281CFFF7A0
:1008E00065FE002814D12378002B0ED0E37A042073
:1008F000DA0610D5627D237D12021A43E37EA17EC3
:100900001B0212040B431343AB60281CFFF792FD3C
:10091000032800D104200DB030BDC046BC0100103A
:1009200038B5051C0C1C131C291C0248221C00F0A5
:1009300003F838BD007300000FB404B07047000026
:1009400038B50368041C0D1C013304D1064807495F
:100950002422FFF7E5FF6368002D01D0E26800E084
:100960002269136038BDC04631730000497300002E
:1009700070B50D1C041C161C00F0A0FB013507D03F
:10098000201C002100F0C2FB201C311C00F0B8FB31
:1009900070BD08B50122FFF7EBFF08BD70B50D1C57
:1009A000041C161C00F08AFB01350BD0201C311CE6
:1009B000FFF7C6FF201C012100F0A8FB201C00212E
:1009C00000F09EFB70BD08B50022FFF7E7FF08BDF1
:1009D00010B5044B041C083303601C3000F06EFC9F
:1009E000201C10BD9873000010B5041CFFF7F0FF29
:1009F000201C00F071FA201C10BD0000036810B527
:100A0000041C013304D1064806492C22FFF788FF55
:100A1000636960681B681840431E984110BDC0465A
:100A200031730000497300000F4B70B50833051C8B
:100A300008C5041C0E1C281C0021182204F062FEAC
:100A40000023201C311CE36123626363A363E3641E
:100A5000064A231C1C3000F0CFFB281C311CFFF77A
:100A600098FF201C70BDC04698730000DB0A000090
:100A700008B50430FFF7C2FF08BD08B50A1C031C07
:100A80001C30002905D00022196201215A630A1C7A
:100A900000E0012100F026FC08BD08B50A1C031C7B
:100AA0001C30002905D000229963DA64022101225A
:100AB00000E0022100F016FC08BD08B54369011CE6
:100AC000002B04D10368002B06D0984704E000688F
:100AD000002801D00431984708BD08B5012903D08A
:100AE000022904D1383000E02030FFF7E6FF08BDCE
:100AF00010B5041C421C12D00B685A1C0CD0A34227
:100B000008D1201C896800F013FC201C002100F093
:100B10002BFC04E00C31EFE70148FFF70DFF10BD9F
:100B2000A873000008B588420AD0431C07D00131E1
:100B300006D00448FFF700FF0120404200E0081CF7
:100B400008BDC046B97300000B685A1C05D083422B
:100B500001D1486802E00C31F6E7181C704700002C
:100B600010B5041C431C07D0FFF7EEFF041C431C08
:100B700002D10248FFF7E0FE201C10BDCA7300003E
:100B8000074A13681818EFF30881884205D3054B0C
:100B90000C2201201A60404201E01060181C7047CE
:100BA0000401001000250010064B10B51B68041C42
:100BB000002B00D09847044B1B68002B01D0201C51
:100BC000984710BD08010010140100100A4B10B521
:100BD0001B68041C002B04D09847002801D1FFF7A4
:100BE000E3FF064B1B68002B01D0984700E0181C60
:100BF000002C00D0206010BD0C010010100100106E
:100C0000014B0833036070470874000010B5044BB3
:100C1000041C0833036000F05FF9201C10BDC046BF
:100C20000874000073B5041C0E48002508302060CD
:100C30000820E0600C48261D6061069865602572FA
:100C400025610090301C00F001FD301C2B1CE16878
:100C5000226900F07BFD301C616900F0ADFD201CB5
:100C600076BDC0460874000040420F0070B5094DC3
:100C7000041C2B6883420BD0061D301CE1682269DE
:100C8000002300F063FD301C616900F095FD2C60CD
:100C900070BDC046C001001008B5044B0261C160C0
:100CA00000221A60FFF7E2FF08BDC046C001001035
:100CB00008B5034B002241611A60FFF7D7FF08BD5A
:100CC000C001001038B50D1C041CFFF7CFFF291C14
:100CD000201D00F0B7FD38BD38B50368041CDB6883
:100CE000984763685A682368002A02D19B6898472E
:100CF00014E05B681568984763682D1A002D08DCBE
:100D00005A68916859601B68002BEAD05068984770
:100D1000E7E75B68226818681369984738BD0000E8
:100D200008B50248FFF7D8FF08BDC046347400007C
:100D300038B5041C00F0C2FD051C00F0BFFD401BCF
:100D4000A042FAD338BD08B5FA239B005843FFF7F9
:100D5000EFFF08BD0A4A70B5956893682C1C002BFC
:100D60000AD1802676059C195E5904332660C02B73
:100D7000F7D180246405946010308000015170BD6B
:100D800000ED00E07FB53E4A8021D06F49023D4B27
:100D90000143D16723223C499A6001220A603B4902
:100DA0003B4D0A6000228E211A6289005858202487
:100DB000284001900198A0430190019CC8200002A6
:100DC0002043585000920099324A914203D8C046BD
:100DD000009A0132F6E7012200211A645A6459642C
:100DE0005A64596C274AC807FBD58E218900505890
:100DF000802428400290029820430290029EC8203E
:100E000000020643565023269660565835400395F7
:100E1000039DA5430395039C20435050D8680121AE
:100E2000184A0842FAD00320106700205167506723
:100E30005167586F0121134A0842FAD08E209167FA
:100E400080001558144C2C4014501558134C2C404D
:100E5000145000209164D164D064D164DA6CD1075D
:100E6000FCD5084A23211161596901221142FBD0A6
:100E70000B4B0021196019600A4B1A607FBDC046F8
:100E80000480044000800440F0400440F4400440EA
:100E9000FF250000C3090000FFFBFFFFFFFEFFFF6F
:100EA000C0800440C8800440704770477047704756
:100EB000704710B50023934203D21C585C50043392
:100EC000F9E710BD00238B4203D200221A500433ED
:100ED000F9E770470020704708B504F009FC08BD29
:100EE000104B13B59A680178120B12039A609C6834
:100EF00001228A4022439A609A680B4802439A6012
:100F00001869084A019001980028F9DA0831890027
:100F10008B58019393685B005B0893600198000411
:100F2000000D16BD00C001400000088470B5061C0D
:100F3000FFF7D6FF041C301CFFF7D2FF051C301C46
:100F4000FFF7CEFFAC4202D9231C2C1C1D1C85428E
:100F500000D9051C281EA04200D2201C70BD000034
:100F600073B5224D061C0C1C081C291CFFF7F8FD4C
:100F7000C3B23370FF2B04D11D481E493522FFF741
:100F8000CFFC201C291CFFF7B3FDE4051A4BE40D30
:100F9000E4182368802293432360184A8E239B0021
:100FA000D0581749014001910199102081430191C6
:100FB0000198C82109020143D150124B8022D96FF8
:100FC00092010A43DA67104B1049186804F090FC4C
:100FD000802201380E4BC0B2D20510431860191C94
:100FE0000B681340FCD10A4A136073BDA074000063
:100FF0003C74000054740000004004400080044031
:10100000FF250000048004401801001020A1070003
:1010100000C0014008B5FFF789FF05F015FC024943
:1010200005F0F6F808BDC0460108803910B5041C6B
:10103000421C04D1164817491E22FFF771FC164BBB
:101040001A68002A06D101221A60144B1449DA6F7B
:101050000A43DA670121002C12D0124B9C420FD0B8
:10106000114B9C420CD0114B9C4209D0104B9C421E
:1010700006D0104B9C4203D00F4BE1184B42594114
:10108000201CA40400F054F9E40E0120A04010BD7F
:10109000367300003C750000CC0100100480044051
:1010A00040000100281400002C1600003018000039
:1010B000341A0000381C0000C4E1FFFF38B5041CDE
:1010C0000D1C21604A1C11D0081CFFF7AFFF2D1426
:1010D000074AAD00AB18074AE360AB18064A236124
:1010E000AB186361054B6060ED18A56038BDC04664
:1010F000002200A0802200A0002100A0002000A06B
:1011000008B5006800F030F908BD000038B5036884
:10111000041C0D1C013304D109480A494322FFF77E
:10112000FFFB002D06D0012D09D1A3686268196864
:101130000A4303E0A36861681A688A431A6038BDED
:10114000317300003C750000F8B5144D01210C1CF2
:101150006B6A8440234220D0114B8700F858002846
:101160001BD02B68234218D16B68234206D0EB6951
:10117000234203D00B4B1B689847EC612B69074E49
:10118000234209D0336A234206D0054B0221D859A5
:10119000044B1B68984734626C62F8BD004000A0A5
:1011A000D4010010D001001008B50020FFF7CCFFDB
:1011B00008BD08B50120FFF7C7FF08BD08B502202C
:1011C000FFF7C2FF08BD08B50320FFF7BDFF08BD4C
:1011D00008B50420FFF7B8FF08BD08B50520FFF7E4
:1011E000B3FF08BD08B50620FFF7AEFF08BD08B580
:1011F0000720FFF7A9FF08BDF0B5061C274885B0FA
:10120000814202DD0120404246E025480260002282
:10121000244895002C580294002C39D12B50224898
:101220003260C46F214F224B3C43C4678803800F58
:101230001824444349121F270F40111CBC465E313D
:10124000644489000090CC508121890001245858C1
:10125000271C9740384358500099A02388001B064C
:10126000C01880239B01C75861460397271C8F40F5
:101270000399B943C1500F4B50B2E958FFF76AFDCB
:1012800033681F2213409C400B4B02981C6003E004
:101290000132082ABCD1B5E705B0F0BD1311020038
:1012A000D0010010D4010010048004408000090027
:1012B000008004408475000000E100E00368002124
:1012C0009A00064B10B5D150054A81239B00006857
:1012D000D15801248440A143D15010BDD401001045
:1012E00000800440036870B5104D012098402B68C1
:1012F000034200D168622E68C44326400B4B2E6027
:10130000012909D1002A03D05A68104358600CE023
:101310005A6814405C6008E0002A03D01A69104340
:10132000186102E01A6914401C6170BD004000A001
:1013300038B5041C0D1C431C04D10848084915226B
:10134000FFF7EEFA074BE405E40DE41822680723E3
:101350009A431D40131C2B43236038BD3673000095
:10136000A47500000040044038B5041C0D1C431C4B
:1013700005D1114811491D22FFF7D2FA06E0812359
:101380001B01984216D00E4B984213D0E4050D4B2A
:10139000E40DE4182268042D04D18023DB001343FC
:1013A000236007E018239A4303231D40EB00151C1C
:1013B0001D43256038BDC04636730000A47500008B
:1013C000140A00000040044038B5051C0C1C081C21
:1013D000002104F08DFB002809D1FE21201C890585
:1013E00004F09AFB002803D0FE24A40500E00024AA
:1013F0002D6880239B00E85805F026FA211C04F094
:1014000007FF04F09DFB81239B00E85038BDF7B532
:1014100080238122046895009B00E758081C6659C8
:10142000E15005F0B5F90190301C05F00DFA061CED
:10143000381C05F009FA011C301C04F005FD011CE4
:10144000019804F0E5FE04F07BFB6051F7BD00005D
:10145000F7B5041C0F1C081C5149FFF781FBC3B2F0
:10146000061CFF2B02D14F48FFF766FA4E480123B6
:101470000178051C0A1C1A4000D18EE0194119425E
:1014800000D084E02A78012199400A432A70474A13
:10149000990089586360216045498025C86F454A95
:1014A00001902806019D09330543CD67012051684D
:1014B0009840031C0B435360381C3949FFF718FB55
:1014C00027683D4A3B683D4913433B607B680C22DB
:1014D00013437B607A683A4B13407B60394B7D68DD
:1014E000186804F005FA7F230138184040012843AA
:1014F0007860F0B2012507281DD804F0EFF9040A3E
:101500001016040A1016A023DB00FD5002222E4BF9
:1015100010E0A123DB00FD5002222C4B0AE0A223A5
:10152000DB00FD5002222A4B04E0A323DB00FD5028
:10153000284B0222FA508022C12352019B00FA500C
:101540000123C0225B429200BB502349C322920078
:10155000B95080252149C222AD009200BB5079517B
:101560007B598126B6009B08BB517B6804229343BC
:101570007B60201CFFF74BFF2468605905F064F97D
:10158000002104F045FE04F0DBFAA051F7BD144839
:10159000FFF7D2F901235B4274E7131C72E7C046E0
:1015A000EC75000058760000F4010010847600000D
:1015B00004800440008004400100060040420F0007
:1015C0001FF0FFFF18010010040500000C050000CB
:1015D000140500001C05000001100000204E000052
:1015E000727600000A4B8022D96FD2050A43DA676F
:1015F000084B01221968802011431960002199606D
:101600001968014319601968914319607047C04611
:101610000480044000400240024B18680006C00FDE
:101620007047C04600400240014B98687047C04672
:1016300000400240044B8022196891431960986071
:1016400019680A431A60704700400240F0B587B03D
:10165000041C0091081C314901920293FFF780FAA3
:101660002F49071C0198FFF77BFA2E4D0390291C88
:101670000298FFF775FA2C4E0490311C0C98FFF776
:101680006FFA03990590381CFFF74CFA0599071C6F
:101690000498FFF747FA011C381CFFF743FA204F64
:1016A0002060013004D1214821494822FFF738F950
:1016B0002368204A93420FD01F4A934219D11F4AF0
:1016C0008021D06FC9020143D1671D4A01211D4B02
:1016D00011605A6804210AE0184A8021D06F09017C
:1016E0000143D1671849174B01220A6059680A4320
:1016F0005A6000980949FFF7FBF90198391CFFF778
:10170000F7F90298291CFFF7F3F90C9B013303D07A
:101710000C98311CFFF7ECF907B0F0BDD077000052
:101720008C760000C87600000C780000107700006E
:10173000247700000000044000800540048004403D
:101740009C8004400080044094800440F8B51F1C35
:101750000368151C5A680E1C02218A435A60331F05
:10176000041C0C2B06D9032D04D9114811496522FC
:10177000FFF7D6F823680122281C1968D5401040CD
:10178000C0012A40013E06439201090C0904164398
:101790000E431E605A680D218A43791E8F41BF0097
:1017A00017435F60236802215A680A435A60F8BDF4
:1017B0006A77000024770000F7B5036802245A68AE
:1017C000051CA2435A601C4B0E1C1B680193211C74
:1017D000019804F08DF804F0DBFF071C301C04F0C6
:1017E000D7FF011C381C04F02FFBFC21890504F0F5
:1017F000BFF905F015FD03F093FE05F0DDFCFF28B1
:1018000010DC2B680D4A1C61196801380A401A6007
:101810001A680002104318602B6802215A680A43B4
:101820005A6007E0802302345B009C42CFD1044819
:10183000FFF782F8F7BDC04618010010FF0000FF57
:10184000A877000010B50368DA689407FCD59960A2
:101850000368DA685107FCD5986810BD38B5104B9D
:101860001A68002A1AD101251D600E4B8022D96FFB
:10187000D2000A43DA670C4B0C4C186802236360F1
:101880000B4904F035F80138E0600A49656013201F
:10189000FFF760FA8022084B12031A6038BDC04679
:1018A000F80100100480044018010010008001407D
:1018B00040420F00210D000000E100E008B5044B9C
:1018C0001B68002B01D1FFF7C9FF024B986808BDC8
:1018D000F801001000800140034B012198615A6912
:1018E0000A435A617047C04600800140024B012103
:1018F0005A698A435A61704700800140014B0122B6
:101900001A607047008001407047704770470000C0
:1019100008B50548FFF77EFB044904F079FC04F0A4
:101920000FF9034B187008BDFD01001000007F4344
:10193000FC01001008B50548FFF76CFB044904F0F2
:1019400067FC04F0FDF8034B187008BDFD010010A2
:1019500000007F43FC01001008B502480249FFF770
:10196000FFFA08BDFD0100105C2E000008B502F072
:1019700037FC08BD00230B4AD15C0B4A002906D076
:10198000D15C0131C9B2FF2907D1022105E0D05C49
:10199000002803D0FF2800D0FF21D1540133072BAA
:1019A000E9D17047751A0010FF010010034B185C55
:1019B000013843425841C0B27047C046FF01001091
:1019C00010B51E4B002219781A701D4A5078002855
:1019D00001D001201870D078002803D01878022494
:1019E000204318701078002803D01878042420436E
:1019F00018709078002803D01878082420431870B5
:101A00001079002803D018781024204318705079DA
:101A1000002803D018782024204318709279002AD7
:101A200003D01A78402002431A701B78081C184013
:101A30009943044A044B1070197010BDFE01001048
:101A4000751A00100702001006020010014B1879E9
:101A50007047C046751A0010014B58787047C04651
:101A6000751A0010014BD8787047C046751A0010DF
:101A7000094A00231380094A1370094A1370094A5E
:101A80001370094B012252421A80084A084B1A600F
:101A9000084B09221A7070470E0200100D02001048
:101AA00014020010080200100A0200101482000044
:101AB000100200100C02001008B50248FFF7D8FF12
:101AC00008BDC0460902001037B572B6244B00218C
:101AD00059601961234B04221A60234B8E22920015
:101AE0009D588024E4002C439C509D588024640021
:101AF0002C439C5001225A671C1C5967616F0123BB
:101B0000194A1940FAD1116753675167616F012370
:101B1000154A0B40FAD15364516C8E2193608900B1
:101B2000136753605558114C2C400194019C80253B
:101B30002C430194019DC82424022C435450A0221C
:101B400084211206890153500949535009495350C1
:101B5000094B9860001C01688D464068804737BD7E
:101B6000004000A010E000E000800440FF250000DD
:101B7000042100000821000000ED00E07047000093
:101B8000F0B5C1B00E1C00F053FE00F05DFE8023E6
:101B9000DB029B1B051E9D4200D91D1C00F03EFE72
:101BA000134801F07BFE0024AC421DD280277F0049
:101BB0006846391C00F016FEFF2804D82B1BBB42D8
:101BC00001D90C4806E0A019694603F0ADF90028D8
:101BD00004D0094801F062FE012006E00134074804
:101BE000FF3401F0E3FDDFE7002041B0F0BDC04667
:101BF0007E8300008A830000A5830000F783000035
:101C0000534B73B501261E70524B00241C80524D5D
:101C1000FC23DB002B8000F039FE211C201C00F08F
:101C200065FE301C01F018FD0094019407F07FF967
:101C30004A48042100F0B0FDA0420FD100F0F8FDA9
:101C40000820404200F0D6FD0421684600F0CAFD9D
:101C5000042101A800F0C6FD00F0E0FD404C414B1E
:101C600022689A4200D0404C22689A4200D03F4CF1
:101C700022689A4200D03E4C22689A4217D0202314
:101C80005B423C482B8001F009FE009B002B03D0F7
:101C9000394B019A9A4242D8384801F0FFFD384842
:101CA00001F0FCFDFC23DB002B80364822E0364BA4
:101CB00036482B8001F07AFD01235B4260680A21DF
:101CC0002B8001F0F1FD009B6268934227D8A06849
:101CD000FFF7FAFE17E0FFF7C5FE002836D1FFF741
:101CE000BBFE0028F7D000980199FFF749FF0028B4
:101CF00028D0274801F0D2FD05E0FFF761FEFFF78D
:101D0000A5FE002804D1FFF7A1FE0028F5D01DE0B4
:101D1000FFF79CFE002819D0FFF752FEF8E71D4B95
:101D20001D482B8001F042FD01235B4200980A21EF
:101D30002B8001F0B9FDFC23DB0018482B8001F05B
:101D4000ADFDCCE7164801F0A9FD87E773BDC0469D
:101D5000240100102A0500101E0100106B840000F1
:101D6000F4FF03001EAB07B004FF030004FE0300F2
:101D700004F0030073840000FF7F030087840000E9
:101D8000307300009E840000FF070000B98400004B
:101D9000C38400001FF8FFFFE9840000FD840000F9
:101DA000DF840000F8B5012001F056FC494B002605
:101DB0001E8000F06BFD484C484B4948238001F0E1
:101DC000DFFB484D01232B70474BFC271E70474B10
:101DD0003021FF0060201E70278001F0EBFC44489A
:101DE00001F0E4FC3821602001F0E4FC414801F0FE
:101DF000DDFC4021602001F0DDFC3F4801F0D6FC15
:101E00004821602001F0D6FC3C4801F0CFFC602165
:101E1000282001F0CFFC0126394801F0C7FC7642AA
:101E20003848268001F0C2FC3748278001F0BEFC0C
:101E30000223364826802B7003F01EF9431EDBB2C6
:101E40000324042B00D8041C03F040F986B2FFF7EA
:101E5000B7FD6820782101F0ADFC201C0A2101F0BB
:101E600003FD03F033F9FA229200B318984203D924
:101E700003F02CF9013C86B202F054FA002808D095
:101E800002F050FA041E02D0FFF79AFDF8E7FFF7C0
:101E9000B7FE02F03BFA002807D002F037FA00281C
:101EA00002D0FFF78DFDF8E7041C02F035FA002898
:101EB00006D002F031FA002804D0FFF781FDF8E7E0
:101EC000002CC4D101232B7000F0E0FC002001F0B5
:101ED000C3FBF8BD2A0500101E01001000F8FFFF2B
:101EE000B07E000024010010250100102001001028
:101EF00022850000278500002C8500003185000028
:101F0000368500003C85000040850000A20F0000DF
:101F1000F0B5914C1F1C23888BB05211061C0D1C70
:101F200009930292002F06D0002132220091081C52
:101F3000131C00F0CFFC029A032A02DCFC23DB0016
:101F400009E0029B042B02D120235B4203E0029AAA
:101F5000042A01DD814B2380002F16D001F074FB91
:101F6000041C012001F078FB01F0CEFF291C021CAB
:101F70001439701EC0B2C9B20A2301F079FC784846
:101F800001F014FC201C01F067FB029B724F002B38
:101F900001DC744B3B80ADB2734C039501232DB231
:101FA000221C30B20093291C00F0AAFC029A06956C
:101FB000012A01DC6B4B3B80B6B204960836012542
:101FC00036B2301C0699221C2B1C009500F098FCA0
:101FD000039B0095043B1AB20592111C2B1C301C6C
:101FE000221C00F08DFC029B022B01DC5D4B3B8030
:101FF000049E0125103636B2301C0699221C2B1C7B
:10200000009500F07DFC301C0599221C2B1C0095CE
:1020100000F076FC039B0095083B1AB20792111C56
:102020002B1C301C221C00F06BFC029B032B02DCDF
:102030004C4A494B1A80049E4B4D1836012436B247
:10204000301C06992A1C231C009400F059FC301CFB
:1020500005992A1C231C009400F052FC301C07999F
:102060002A1C231C009400F04BFC039B00940C3BA7
:102070001AB20892111C231C301C2A1C00F040FCD0
:10208000029B042B02DC374A334B1A80049E012446
:10209000203636B2301C06992A1C231C009400F00E
:1020A0002FFC301C05992A1C231C009400F028FCEE
:1020B000301C07992A1C231C009400F021FC301CC2
:1020C00008992A1C231C009400F01AFC039F2A1C68
:1020D000103F3FB20094301C391C231C00F010FC50
:1020E000029A052A02DC1F4B1B4A1380049E1E4DD8
:1020F0002836012436B2301C06992A1C231C009471
:1021000000F0FEFB301C05992A1C231C009400F0F3
:10211000F7FB301C07992A1C231C009400F0F0FBED
:10212000301C08992A1C231C009400F0E9FB301C89
:10213000391C2A1C231C009400F0E2FB03992A1C82
:102140001439231C09B20094301C00F0D9FB099A01
:10215000014B1A800BB0F0BD1E01001000F8FFFF0C
:10216000CF8500008A5200006B8B0000F0B5012083
:1021700085B001F071FA9D4B00221A7001F0C4FE87
:10218000FA20000102F078FF041C04F05DFB984B7C
:1021900098491C80051C03F0BFFC002801D0FF20DB
:1021A00000E07F2001F09CFE0024201C04F0F0FAE7
:1021B000291C03F0A7FC002805D020B2013401F04F
:1021C0004BFEE4B2F1E78C4B18708C4802F054FFE0
:1021D000431EDBB2051C092B00D9894D02F076FFA6
:1021E000012180B2039002910124864B1B78002BC1
:1021F00003D0002C01D0002D22D101F085FE041C5B
:10220000FA20000102F038FF061C201C04F01CFB21
:10221000051C301C04F0BCFA011C281C03F062FCF5
:10222000002804D1FA20E1B2000102F02EFF20B212
:1022300001F012FE0020011C00F058FB05B0F0BDBB
:1022400002F044FF0399FA2292008B18984208D9B1
:1022500002F03CFF6C4A80B2AB185A1E93410390C7
:10226000ED1A012C03D0022C00D1A0E0BDE7029BA7
:10227000664C002B34D0012700F008FB7F42102170
:102280002020278000F032FB614801F08FFA99216D
:10229000282000F02BFBFC265E4801F087FAF600B0
:1022A0005D48268001F082FA5C48278001F07EFAC2
:1022B00058210020268000F019FB594801F0EEFA61
:1022C000584E301C01F0EAFA301C01F0E7FA301CDD
:1022D00001F0E4FA301C01F0E1FA534801F0DEFAB3
:1022E0003020992100F002FB504E3378032B02D8A6
:1022F00001235B4200E04E4B238002234D4A0093B2
:10230000A4200123302100F0FBFA3621182000F030
:10231000EDFA494801F04AFA1820422100F0E6FAA5
:102320003378032B01D9454800E04548FC2701F0EC
:102330003DFAFF000223434A2780A4200093602136
:10234000012300F0DDFA6621182000F0CFFA3E48A4
:1023500001F02CFA1820722100F0C8FA01F0D4FD27
:102360007F2802DD324B238000E027802F4B274C53
:102370001A78042A03D120235B42238003E0072A32
:1023800001D106221A700A21307801F06DFA2F4827
:1023900001F00CFAFC23DB00238001F0B5FD77216E
:1023A000021C00237020FFF7B3FD02241DE7FFF796
:1023B00007FBFFF7DFFA01F0A9FF071E13D1201C6E
:1023C000FFF7F4FA061E04D001F05CFD0C4D0297F5
:1023D0000AE7FFF7EBFA002800D106E701F06AFDF3
:1023E000074D029600E70024FFE6C04625010010D5
:1023F000561800100000FE4226020010A30F000035
:10240000FFFF0000240200100100FFFF1E0100106A
:102410004B850000648400005F850000618500003A
:102420006C85000087850000A28500006C180010F4
:1024300000F8FFFF278B00001F840000BD8500000F
:10244000C7850000498B0000D2850000CF850000C1
:1024500008B5094B012200201A7001F0FDF8074869
:1024600001F08EF802F022FE02F046FE01F0B8FE06
:1024700002F032FE08BDC046240200104878000079
:10248000014B18787047C0462402001037B500246D
:10249000251C02F01BFE274B1A689042F9D91E300A
:1024A0001860012C0BD0002C02D0022C23D039E074
:1024B000214B201C1C8000F0F7F9012432E0FC21A4
:1024C000EAB2C900002001F01FFA1C4B1C4A188018
:1024D000107851786E234008181A490858231C3583
:1024E000591A0094231CADB200F00AFAFE2D19D936
:1024F0000025022416E0114BFC22D2001A80104A5B
:102500006E23107851784008181A49085823591A30
:102510000123009300F0F4F93F350A4BADB29D4220
:1025200000D9FF24FFF792FA002801D1292CB0D955
:1025300037BDC046F02400102A0500101E0100100F
:102540001D860000FF03000008B57F2001F0C8FCD5
:10255000034B7F221A80034BFF221A7008BDC0462E
:10256000561800101C020010F7B5FFF771FF334B2F
:1025700032221A70324B01251D60324BFF241C7031
:10258000FFF7E2FFFFF7C0F9201CFFF7BEF9FFF7E6
:10259000EDF9FFF7EFF9FFF7BBF900F0A2F9FFF74C
:1025A00075FF281C01F058F8274F00243C8000F0EC
:1025B0006DF9264E301C00F0E3FF281C01F04CF8AA
:1025C000234BFC22D2001A803C8000F05FF9301CC3
:1025D00000F0D6FF1F4F204E3C703570FFF7E2FB36
:1025E000FFF7C4FD00F0A2FB58230093201C211C20
:1025F000221C6E2300F0F2FB184B1C79002C02D039
:10260000FFF7B8F9F8E7201C01F026F8144A012377
:102610001370144A14483B703370137000F0B0FF0D
:1026200001F09CF9FFF786F90520FFF7BFF90028B4
:1026300002D0201C01F010FCF7BDC046250200109E
:10264000280200101C0200102A050010B07E0000B5
:102650001E0100102501001020010010FF010010D4
:10266000240100101D0100104C7B0000F7B51D4A2D
:102670001378002B34D000240B2B02D80C24E41A3E
:10268000E4B2194B012700201F7000F0C5FB174D65
:1026900055262B780322F11A61180333009200208B
:1026A000542200F030FF381C00F0B6FB2B780322D8
:1026B000F61AA119033300920020542200F0BFFE45
:1026C0000B4B04221A802B78E41A0A4B57341C80D7
:1026D000094B186801F06AF8024A1378013B13703D
:1026E000F7BDC0463002001024010010A102001006
:1026F000C4040010B804001020020010F0B587B028
:1027000005930CAB039104921F78061C02F0DEFCCB
:10271000194B1A78194B1C68211A194C914212D97D
:10272000216800290FD082181A60164B01251A68FB
:1027300001321A6000232360FFF7E8F8FFF71AF967
:10274000FFF7F8F814E022680025AA4210D101F042
:1027500031FA01F089FA01F079FBFFF787FF059B59
:102760000097301C0399049A00F038FB0123236082
:10277000281C07B0F0BDC046250200102C02001036
:10278000280200101802001008B5024800F00AFFE5
:1027900008BDC0462702001070B50F4C061C2378F8
:1027A0000D1C102B0BD0301C2570FDF793FF051E60
:1027B0000CD10A48311C03F089F82B1C09E00848A9
:1027C00006F0F2FA01230028EDD002E0082323707E
:1027D0000123181C70BDC0461C0100107C020010B3
:1027E0003402001013B56C460634221CFDF7ACFF12
:1027F000208816BD08B5074B002804DADA69414283
:102800008A4200D25042DB69C018FEF703F8024B3F
:10281000187008BD340200108B02001008B50020AB
:10282000FDF7F8FF014B187008BDC0468B02001081
:1028300008B5034B186AFDF7EDFF024B187008BD91
:10284000340200108B020010014BD8697047C0465B
:102850003402001013B50123074C5B428122009320
:10286000201C064B06495201FEF7DCF9201C0549E5
:10287000054AFEF72FFB13BD64020010180C000080
:1028800024120000010C00000001001008B5002017
:1028900001F018FE024A00231380024A138008BD8B
:1028A000C4040010B804001008B501F00BFE08BD08
:1028B000064B10B51B880F2B04D8054C5B001B5B27
:1028C000934201D001F072FF10BDC04628010010F4
:1028D000AC02001013B504AC2488009401F096FFFC
:1028E00013BD08B501F056FE08BD0000024B18806C
:1028F000024B19807047C046C4040010B804001091
:10290000F0B593B00B9118A909780E900C9111783D
:102910000A91517802320D910792012B74D10A9BD2
:1029200000220733DB100893019201990A9A0BB237
:10293000934200DB02E1DA17520FD218D210D2B262
:1029400009927F4A134004D50822013B52421343A7
:1029500001331BB280221A410E9B01999BB289B2AE
:10296000029303914B0002999BB20F925A1892B2B4
:1029700010920A1C01329B189BB2119300240D99EE
:1029800023B28B423DDA089A099953434AB2079918
:10299000CB189B5C0F9A1A4231D00C9B694D012BCE
:1029A00008D10399029A0B9B8818E11800B209B26A
:1029B0002A8822E00B9963008EB29BB2109A9F196D
:1029C00004933FB213B2181C2A88391C0593FFF7F1
:1029D0006FFF11992A880BB2181C391C0693FFF758
:1029E00067FF049A0136961936B22A880598311C79
:1029F000FFF75EFF2A880698311CFFF759FF013464
:102A0000BDE7019A01328FE7042B00D096E0002346
:102A1000039303990D9A0BB2934200DB8EE00B9B5C
:102A200089B29BB20593059A4B00D3189BB20691CD
:102A30000E9A99B201339BB292B209930023089186
:102A400004920292019301990A9A0BB2934272DAAC
:102A500007993D4B0A781B6812115200D45A0C9A00
:102A6000022A1ED1019B04995E00089A8E19B6B203
:102A700035B217B2013636B2281C391C221CFFF7BA
:102A800017FF301C391C221CFFF712FF0999301C5C
:102A90000BB21E1C191C221CFFF70AFF281C311C3C
:102AA00005E0029A069B10B2059A991809B2221CF9
:102AB000FFF7FEFE079B0C991A780F231A40224B52
:102AC00052001B68D45A02291FD1019A049B560058
:102AD0009E190899B6B2B51C2DB20FB2033636B2A4
:102AE000281C391C221CFFF7E3FE301C391C221C59
:102AF000FFF7DEFE099A301C13B21E1C191C221CA3
:102B0000FFF7D6FE281C311C06E00298069B059AAA
:102B10000130991800B209B2221CFFF7C9FE079BC9
:102B200001330793019B02339BB20193029B023353
:102B30009BB2029387E7039B013369E713B0F0BDB3
:102B4000070000801E010010B4040010F0B5704BA7
:102B50008FB01B680D905C78019118780094082C58
:102B600005D0211C10394C1EA141C9B200E0002142
:102B7000009DEC100C19211C414301314A430432E1
:102B80009B185F1C1B78089400240C930694069CE9
:102B90000C9D62B26BB29A4200DBAFE0089D3B78BD
:102BA000022D02D00137059304E07A780237120231
:102BB0001A430592069D0D9CADB2A4B26B00E318BA
:102BC0009BB202949CB2013303959BB200250994F9
:102BD0000A930795079D009C6EB2A64200DB89E030
:102BE000059CE4073BD54B4B4B4C1B78022B1ED16D
:102BF000019D760076190999B6B232B20DB20492EF
:102C0000281C22880499FFF753FE0A9901360BB25B
:102C1000181C2288049936B20B93FFF749FE2288CC
:102C2000281C311CFFF744FE22880B9840E03B4BE8
:102C30001B78002B0AD00098019D01384019029A98
:102C4000039D861BA91830B209B206E0039D0299C4
:102C50006818019D00B2761931B2228840E0304CEC
:102C6000304B22881B8893423CD02A4B1B78022B86
:102C700020D1019D7600099C7619B6B225B234B2F6
:102C8000281C211C0494FFF713FE0A99244B0CB254
:102C90001A88201C0499FFF70BFE0136204936B232
:102CA0000A88281C311CFFF703FE1D4D201C2A88B2
:102CB000311C15E0194B1B78002B0AD00098019CA1
:102CC00001380019039D029C861B291930B209B2F4
:102CD00006E0039D029C2819019D00B2761931B2CD
:102CE000FFF7E6FD079B059C01336408DBB2059402
:102CF00007936FE7069D0135069548E70A4A0020CD
:102D00001056044A1B18107858430FB0F0BDC04647
:102D1000C0040010240100101E010010290500103D
:102D20002A0500102801001025010010F8B5234ADB
:102D3000234F12783B88234CD8B2234E234D012ACF
:102D400003D1FF21002B31D12BE0022A06D1032130
:102D50000840810008430101014327E0032A20D1F4
:102D600001211940206800D0FF21194A02F0CAFC55
:102D70003988022319402268154BD018002900D049
:102D8000FF211A1C02F0BEFC398804231940206878
:102D900003D0104AFF21801801E00E4BC0180C4AE6
:102DA00006E001010F2003400B43D9B220680A4A14
:102DB00002F0A8FC002333802B80F8BD2101001015
:102DC000BC040010A4020010C4040010B8040010D9
:102DD000BA040000740900001F13000008B50028A1
:102DE00005D1064B1868064B196801F071FD054BBB
:102DF0001B78002B01D1FFF799FF08BDA40200103A
:102E0000B4040010B004001008B5024800F064FDDE
:102E100008BDC0464E8300000F231840014B1880A8
:102E20007047C04622010010114B30B51B889342F9
:102E30001DD0104B84B21B789C4218D20E4D89B223
:102E40002D788D4213D95B1059430C4B401040181C
:102E50001B6880B2181801780F23E50702D5994343
:102E60000A4303E00B4012011A43D2B2027030BD94
:102E700028010010260100102A010010A4020010F1
:102E8000F0B5284B87B01B6803905E7805911878E1
:102E9000082E05D0311C10394C1EA141C9B200E0EA
:102EA0000021F4100C19211C414301314A43043222
:102EB0009B18029403995C1C1B788DB204930399B0
:102EC0006A1A049952B24BB29A4224DA029B2778CA
:102ED000022B01D0013403E0637802341B021F434C
:102EE00000210191019B59B2B14211DC059B28B22E
:102EF000C91809B2FB0701D50B4B00E00B4B1A7840
:102F0000FFF792FF019B7F080133DBB20193E9E7F2
:102F10000135ADB2D3E7064A00201056181807B0A5
:102F2000F0BDC046C004001022010010BC04001017
:102F30002501001030B5114B84B21B789C421BD286
:102F40000F4A89B212788A4216D95B1059430D4B49
:102F5000401040181B6880B2181803780F210A4AE5
:102F6000E50703D512788B43134304E012880B4026
:102F700012011343DBB2037030BDC04626010010BE
:102F80002A010010A40200102201001070B50F4B9E
:102F9000141C1B788AB2061C9A4202D3A2B29A422F
:102FA00012D20B4B1A78B3B29A420DD9A14202DD6C
:102FB0000B1C211C1C1C0D1CA54205DC29B2301C5D
:102FC000FFF7B8FF0135F7E770BDC0462A010010D2
:102FD0002601001070B50F4B161C1B7882B20C1C1A
:102FE0009A4202D38AB29A4212D20B4B1A78B3B2E7
:102FF0009A420DD9A04202DD031C201C1C1C051C9A
:10300000A54205DC28B2311CFFF794FF0135F7E734
:1030100070BDC046260100102A01001008B5002A24
:1030200004DA92B25118524209B212B2521812B2D4
:10303000FFF7ACFF08BD10B50C1C002A04DA93B2F0
:1030400018185A4200B212B28118013909B2221C72
:10305000FFF7C0FF10BDF8B5CE18041C171C36B220
:10306000E7190D1C3FB2321CFFF790FF381C291CDA
:10307000321CFFF78BFF391C2A1C201CFFF7AAFF0C
:10308000391C321C201CFFF7A5FFF8BDF8B58418C9
:10309000CD1824B22DB2002801DA002C2BDB164B00
:1030A0001B78984201DB9C4225DA002901DA002DC9
:1030B00021DB124B1B78994201DB9D421BDAA042B7
:1030C00002DD031C201C1C1CA94202DD0B1C291C58
:1030D0001D1CC643CF43F617FF173040394006B2D8
:1030E0000FB2A64207DA301C391C2A1C0136FFF742
:1030F0004DFF36B2F5E7F8BD260100102A01001099
:10310000F0B5031C85B0002876D03C4A1078834285
:1031100001DB431E1BB23A4A1278042A06D1394910
:1031200009785943CC0F6118491008E0022A63D18D
:1031300034490C785C43E117890F09198910324C26
:10314000304E258889B20395304DB4462D882580B0
:10315000002B28DD34780025E40862432C1C019202
:10316000C21A954217DA221C0E1BB618B6B2009688
:10317000171B019EBFB2B74208DA561C244F0296B5
:10318000009EBE5DBE54029FBAB2EDE70135ADB2FE
:103190000099141CE4E71F4B0027D95F63461A7897
:1031A00003B2002023E034789DB26243D210019232
:1031B0000024854217D2221C0E1BB618B6B2009608
:1031C000171B019EBFB2B74208DA571C0297104F77
:1031D000009EBA5CBA55029FBAB2EDE70135ADB2B6
:1031E0000099141CE5E7674600203A78011CFFF7B8
:1031F0004DFF054B039C1C8005B0F0BD2A0100105B
:10320000210100102601001022010010BC04001052
:103210002C050010B8040010F0B589B00192069397
:1032200093B20122D21A5B0092B25B4202929BB22D
:1032300000220490059107930392039A13B2019A16
:10324000934278DA029A13B2002B0CDB019B013B0C
:103250001AB2079B019202339BB29AB20792029A6A
:103260009B189BB20293039B029A9CB263000333A8
:10327000D3189BB20293069B5B0713D5049A059B58
:1032800096B2019A9DB297B2701C2018791900B2BB
:1032900009B2FFF74FFE691CBE19611830B209B2BE
:1032A000FFF748FE069B9B0713D5049A059B96B231
:1032B000019A9DB297B2701C2018E91B00B209B2A6
:1032C000FFF738FE691EBE19091B30B209B2FFF7BD
:1032D00031FE069B1B0713D5049A019B97B2059AF2
:1032E0009EB295B2691CB81B611800B209B2FFF713
:1032F00021FE781E001B751900B229B2FFF71AFED5
:10330000069BDB0713D5049A019B97B2059A9DB2E1
:1033100096B2711E781B091B013F00B209B23C1B1B
:10332000751BFFF707FE20B229B2FFF703FE039BD0
:103330000133039381E709B0F0BDF0B58BB008937A
:1033400010AB009207910022995E01220991009929
:1033500006908BB2D21A5B0092B25B4201929BB292
:10336000002205930392039A009913B28B4264DA08
:1033700001990BB2002B0CDB009B013B1AB2059BA1
:1033800000920233019A9BB299B29B189BB20591AD
:103390000193039B01999BB25D00ADB202932B1C7C
:1033A0000333CB18089A9BB204950193D2071ED51C
:1033B000069B0799009A9FB2099B8EB294B202991C
:1033C0009DB26200781C0818AA18311B00B209B21D
:1033D00012B2FFF723FE029A711E049B891AAA1CDF
:1033E000E4199A1820B209B212B2FFF717FE089931
:1033F00089071ED5069A079B009997B2099A9EB233
:103400008CB2029B95B2781E6200C01A311BAA18BA
:1034100000B209B212B2FFF701FE029A711E049BBC
:10342000891AAA1C3C1B9A1820B209B212B2FFF7E3
:10343000F5FD03990131039195E70BB0F0BDF0B5AF
:1034400089B01F1C0EAB061C00201C5E0D1C012C3D
:1034500004DC301C3B1CFFF7FEFD52E0B1B2A3B20E
:103460000391019359185B005B4292B29BB20593A2
:103470009B1808B219B207910492291C079ABFB28F
:103480000290ADB2FFF7D7FD7B1EEB189BB219B2CD
:103490000298079A0693FFF7CEFD059B019ADF1964
:1034A00055192DB23FB2301C291C3A1CFFF7B6FD4E
:1034B000049E0398013E8619B6B230B2291C3A1C0C
:1034C000FFF7ACFD291C0298221C0123FFF7A4FE84
:1034D0000199221C761A36B2291C301C0223FFF7F0
:1034E0009BFE069A019B301CD51A2DB2291C221C6A
:1034F0000423FFF791FE0298291C221C0823FFF7E2
:103500008BFE09B0F0BDF0B587B00E1C0CA90025EC
:103510004C5F012C03DC311CFFF7B8FD2EE0A5B297
:1035200092B203926A0080B2039952422F1892B26B
:10353000013B04929BB23FB252180290311C05939A
:1035400012B21BB2381CFFF7A1FD049A059903982B
:103550005318029A01381018AE19451B28B236B21A
:103560001DB2311C221C01230095FFF7E6FE0095D9
:10357000381C311C221C0223FFF7DFFE07B0F0BD10
:10358000054B18600278054B01321A704278044BE3
:1035900001321A707047C046C0040010BB0400100E
:1035A000A1020010124A134B10B5041C1A60FFF759
:1035B0002BFC114B01221A70104BDC221A80104B8D
:1035C000B02210481A80FFF7DBFF0F4B11221A8040
:1035D0000E4A002313800E4A042111700D4A201C4C
:1035E00013600D4A136093611363936410BDC0466A
:1035F0002C050010A402001028050010AA020010DB
:10360000C60400104878000028010010BC04001017
:10361000A8020010AC040010C804001008B5084B44
:1036200000B21B6809B29B78D21A064BD2B21B7843
:10363000002B02D0FFF78AFA01E0FFF721FC08BD5A
:10364000C004001028050010024B1878431E984152
:10365000C0B270472805001009490A4A0A4B0028E1
:1036600005D001200870DC211180B02205E008702F
:10367000064909781180064A12781A807047C046B8
:1036800028050010AA020010C60400102601001030
:103690002A01001038B50B4B0B481B6804885B7877
:1036A0000A4A5800241A0A48118800780DB240B21C
:1036B000A54203DDC018FFF723FD02E0C318591827
:1036C000118038BDC0040010C6040010B8040010FA
:1036D0002001001038B52A4B041C1B68DA78002A38
:1036E00003D0602801D9203CE4B20E2C21D8201C44
:1036F00002F0F4F8441F1F1F1F1F1F1F0E1F081F7B
:103700001F1B44001F4B00221A80FFF7C3FF35E048
:103710001C4A1B781088C01A1B4B80B21080197885
:103720002022C0B2FFF77AFF28E0164B00221A8051
:1037300024E0144D1549288809881B7802B2CB1A59
:103740009A4209DB00232B80114B1B78002B15D0EC
:10375000FFF7A0FF287800E0C0B20B4B221C1978BD
:10376000FFF75CFF202C06D10A4B1B785BB2002BC5
:1037700001D0401001302B88C018288038BDC046C9
:10378000C0040010C4040010B8040010AA02001005
:103790001D0100102501001010B5041C2078002820
:1037A00003D00134FFF796FFF8E710BD08B5FFF727
:1037B000F3FF08BD024B1880024B19807047C046CA
:1037C000C4040010B8040010F0B5002489B0051C32
:1037D0000E1CA04203D13020FFF77CFF1BE000ABA2
:1037E000281C0134311C1F1902F0C6F8013F397042
:1037F000281C311C02F07CF8051EF0D1013C6B4600
:10380000185D092801D8303000E03730C0B2FFF72A
:1038100061FF002CF2D109B0F0BD08B5002903D139
:10382000C0B2FFF757FF02E0C9B2FFF7CDFF08BDF6
:1038300010B5041E03DA2D20FFF74CFF6442201C54
:103840000A21FFF7C1FF10BD08B5002903D1C0B29E
:10385000FFF740FF07E00A2902D1FFF7E9FF02E086
:10386000C9B2FFF7B1FF08BD08B5FFF7EDFF08BD0E
:1038700010B5044C208004480180101C191CFFF76F
:10388000E3FF10BDC4040010B804001008B50D20FB
:10389000FFF720FF0A20FFF71DFF08BD08B5FFF75F
:1038A0007BFFFFF7F3FF08BD08B5FFF7B6FFFFF793
:1038B000EDFF08BD08B50248FEF760F908BDC04637
:1038C000BA0400108910D21049011143C010C3027C
:1038D000081C18437047000038B5041C0025A27866
:1038E00020786178FFF7EEFF054B802258530235B0
:1038F000033492009542F2D1024A136038BDC046AB
:10390000AC020010B404001070B5031C1F24234047
:103910000C40E41A24B2544324124E111C193F25C2
:1039200043112B40C00A3540C912091AED1A5543FC
:103930004A4312128018C243A4B2D217104022B2D6
:10394000D2432D12D2175B191440C0022043DC432E
:10395000E41723405B01184380B270BD08B501F045
:1039600055FA012001F0DAF908BD000000B5002B7E
:103970003ED104283CD801F0B1FF0310262D3400BD
:10398000C9B24BB2002B04DB0A2B00DD0A21C9B2FD
:1039900000E00021174B19702AE0174B89001B68C3
:1039A000164ACB58164819881360164B1A780B1C08
:1039B0005343DBB2037009128B4200DD0B1C5343EF
:1039C00011490B7014E00F4B1B7859430F4B1970C2
:1039D0000F4B0CE00B4B1B7859430E4B19700E4BE1
:1039E00005E0084B1B7859430C4B19700C4B1A70AF
:1039F00000BDC0464E180010781800106018001066
:103A000064180010541800107D180010671800107A
:103A1000891800108C180010711800106E18001012
:103A200072180010002A11D1094B1870094B1B782D
:103A30005943094B1970094B09491A70094B1A80EF
:103A400001230B7008490B70084B1A707047C04671
:103A50004C180010541800105A1800104B18001081
:103A60008A180010741800105B180010511800100C
:103A7000094B10B51A7800239A4201D0074B1B78E6
:103A8000074A084912788C5C5C43240AE0B201F0D2
:103A90005FF9054B1C8010BD5B1800107C180010EE
:103AA0006C180010A58B00008C23001008B50028AE
:103AB0000FD1084B1870084B1870084B1880084B32
:103AC0001870084B1870084B1870084B1870FFF7E7
:103AD000CFFF08BD8A1800105A1800107418001083
:103AE000511800107C180010881800105B18001086
:103AF00010B5041E03D1FFF7D9FF014B1C7010BD98
:103B00004F18001038B5051C0C1E12D1081CFFF709
:103B1000EFFF084B01221D60074B1C80074B1A70FA
:103B2000074B09221A70074B1C70074B1C70074B80
:103B30001C7038BD84180010521800104F18001067
:103B40004E180010671800108C1800106E18001026
:103B500010B500281FD1104A1378002B1BD00F4B33
:103B60001978002917D10E4C0E4B20781B684000A5
:103B7000C35A0D48834201D111700CE00B4A181250
:103B800010700B4ADBB212689B009858FFF7BAFF1F
:103B900023780133237010BD7E1800104F180010D9
:103BA0005018001080180010FFFF00005C18001073
:103BB0006818001008B50020FFF7CAFF08BD000014
:103BC00038B5002842D1224A1378002B3ED0214B31
:103BD0001B78002B3AD1204C204D238829685B00AC
:103BE0005B5A002B13D11E480078002802D0238096
:103BF0000B880CE013701B4A1078002804D0181CA6
:103C0000FFF7A6FF238815E0FFF750FF1EE0012213
:103C10001A409910002A11D0DA120F200840103AE9
:103C20005905C90E002352B2FFF7A0FE23880133C5
:103C30009BB223802A685B009B5AE8E73F2008403C
:103C4000190AFFF7EFFE23880133238038BDC046F1
:103C50004F1800105A180010521800108418001045
:103C6000701800107E18001008B50020FFF7A8FF9C
:103C700008BD0000F7B5002800D0AAE0554B1B781E
:103C8000002B00D1A5E0544B1878002802D1FFF793
:103C90000DFF9EE0514C013818702378002B26D17F
:103CA0004F4A504B11881B6801314800C35A4E4D92
:103CB0000720184028704D489D1205704C4D9805FE
:103CC0002D78800E68431B0720704A48DB0F037075
:103CD000494B89B21B781180994208D3474908782B
:103CE000002802D0181A108001E0FFF7DFFE2378C9
:103CF000013B2370424B434C1D780135EDB21D70E2
:103D0000414B1B780193394B01991E783F4B8E191B
:103D10001B78F6183E4BF6B219782670002907D0AA
:103D200068B201F033FE3B4B1B78584336182670BF
:103D300020782421243001F07FFE374B21701F783A
:103D4000364B0E1C364C19782770002908D068B203
:103D500049B201F01BFE334B1B7858433F182770C4
:103D6000314B1978002910D068B201F00FFE2F4BAB
:103D7000184004D5022301385B42184301302C4B14
:103D80001B7858432378C0182070019D22783F2D5E
:103D900009D0131C52B2092A00DD09235AB2D243BA
:103DA000D217134000E000232370224B0E4D9A5D82
:103DB000214B1A7022782B785343204A12785343B0
:103DC0001F4A1288521153431E4ADBB213701E4A17
:103DD0001370F7BD8A1800105A1800104B18001005
:103DE0007418001060180010581800108B1800107C
:103DF0005418001059180010641800107D18001095
:103E0000511800106F1800104C1800105C180010AA
:103E10008C180010711800104E1800106718001050
:103E200066180010891800106E180010010000803C
:103E300072180010718B0000651800104D180010EA
:103E400056180010881800107C18001008B50020C3
:103E5000FFF710FF08BD000008B5C343DB1718408B
:103E6000054B1880054B40111870054BC0B2185C0B
:103E700000F034FF08BDC046561800106C18001042
:103E80009D8B000008B5084B1A780132D2B2072A80
:103E900000D907221A701B78044AD05C044B1880A2
:103EA00000B2FFF7D9FF08BD6C180010958B000019
:103EB0005618001008B5074B1A78002A01D0013AAD
:103EC0001A701B78044AD05C044B188000B2FFF7CC
:103ED000C3FF08BD6C180010958B00005618001029
:103EE00008B5002803DBFF2802DDFF2000E00020EA
:103EF000034B1880034B0022985EFFF7ADFF08BD0F
:103F00002C01001056180010014B18887047C0464D
:103F10005618001008B50248FDF730FE08BDC0462F
:103F20006D18001008B5074B1F215B6ADA050B40BE
:103F3000591C120F044B92004900D05801F0D8FCD4
:103F400008BDC04600800440B08B0000064B186CD2
:103F500003231840012804DD033843425841C003BD
:103F600000E002487047C04600800440001BB700D4
:103F7000044B10B59C68FFF7E9FF1F231C40013478
:103F8000604310BD0080044008B50A4B1A6F03233C
:103F90001340022B06D0032B07D0012B08D1FFF7CB
:103FA000D5FF06E0FFF7BEFF03E0FFF7E1FF00E00B
:103FB000014808BD00800440001BB70008B5FFF7AA
:103FC000E3FF024B996F01F093FC08BD00800440B1
:103FD000014B01221A717047751A0010014B002223
:103FE0001A717047751A0010014B01225A717047FF
:103FF000751A0010014B00225A717047751A001093
:10400000014B01229A717047751A0010014B002272
:104010009A717047751A0010014B01225A7070474F
:10402000751A0010014B00225A707047751A001063
:10403000014B0122DA707047751A0010014B002203
:10404000DA707047751A0010014B00229A707047A1
:10405000751A0010014B00221A707047751A001073
:1040600008B5054B9A79002A02D0FFF70BFF01E053
:1040700001229A7008BDC046751A001008B5054B9C
:104080009A79002A02D0FFF715FF01E001221A7089
:1040900008BDC046751A001008B50448FCF7E8FCD6
:1040A000034B01221871034B5A6208BD7C1A0010A1
:1040B000751A0010004000A008B50448FCF7D8FCB1
:1040C000034B02225871034B5A6208BD241A001098
:1040D000751A0010004000A008B50448FCF7C8FCA1
:1040E000034B04229871034B5A6208BD90180010CC
:1040F000751A0010004000A008B50448FCF7B8FC91
:10410000034B08225870034B5A6208BDD4190010A3
:10411000751A0010004000A008B50448FCF7A8FC80
:10412000034B1022D870034B5A6208BDE0180010F0
:10413000751A0010004000A038B50F48FCF798FC35
:104140000E4CA0710E48FCF793FCA379C0B220700E
:104150000C4D002B0AD0002808D02B78002B01D161
:10416000FFF7A8FE00232370012300E000232B703B
:10417000054B20225A6238BD90180010751A0010A5
:1041800034190010741A0010004000A038B50F4810
:10419000FCF76EFC0E4CA0710E48FCF769FCA3798D
:1041A000C0B2A0700C4D002B0AD0002808D02B788C
:1041B000002B01D1FFF766FE0023A370012300E06E
:1041C00000232B70054B40225A6238BD9018001016
:1041D000751A001084190010741A0010004000A015
:1041E00010B52E4C2E49201CFCF757FC201C2D49E5
:1041F000FCF743FC2C4C2D49201CFCF74EFC201CEA
:104200002B49FCF73AFC2B4C2B49201CFCF745FCB6
:10421000201C2A49FCF731FC294C2A49201CFCF7B8
:104220003CFC201C2849FCF728FC284C2849201C71
:10423000FCF733FC201C2749FCF71FFC264C2749C0
:10424000201CFCF72AFC201C2549FCF716FC254CF9
:104250002549201CFCF721FC201C2449FCF70DFCFF
:1042600000202349FCF776FD01202249FCF772FD6E
:1042700002202149FCF76EFD03202049FCF76AFD6E
:1042800004201F49FCF766FD05201E49FCF762FD6E
:1042900006201D49FCF75EFD10BDC0467C1A0010CB
:1042A000DD3F0000D13F0000241A0010F53F000060
:1042B000E93F0000901800100D4000000140000090
:1042C000D41900102540000019400000E01800102B
:1042D0003D400000314000003419001055400000FE
:1042E0007D4000008419001049400000614000003A
:1042F00099400000B9400000D9400000F94000009A
:1043000019410000394100008D410000014B18792E
:104310007047C046751A0010014B58797047C04667
:10432000751A0010014B98797047C046751A001035
:1043300070B52648FFF736F9254E2649301CFCF7A4
:1043400073FB254D254C291C221C301CFCF7C2FD9B
:10435000234E2449301CFCF767FB291C221C301C0F
:10436000FCF7B8FD204E2149301CFCF75DFB291CF1
:10437000221C301CFCF7AEFD1D4E1E49301CFCF704
:1043800053FB291C221C301CFCF7A4FD1A4E1B49B0
:10439000301CFCF749FB291C221C301CFCF79AFD41
:1043A000174E1849301CFCF73FFB291C221C301CFF
:1043B000FCF790FD144E1549301CFCF735FB301C02
:1043C000291C221CFCF786FD70BDC0463019001068
:1043D0007C1A001084120100D109000000010010B5
:1043E000241A0010700801009018001088140100B1
:1043F000D4190010941A0100E01800106C06010096
:1044000034190010C4320100841900107C0E010020
:10441000054A0649A0231B0699500549C00058507B
:10442000002199507047C046882000000700F8FF1F
:104430008821000038B5A0248A23240604229B0189
:10444000E250074D80235B046351FFF7E1FF054A0B
:1044500080235B01A350C046C046635138BDC046AF
:10446000042200008422000038B5A02488232406FA
:1044700004229B01E250064D80235B046351FFF749
:10448000C7FF044A80235B01A350C046635138BD77
:10449000042200008422000010B5074C0749201CAC
:1044A000FCF7D6FF201C0521FCF7B1FF201C0449B6
:1044B000FCF78AFF10BDC046CC1A0010FC040200B5
:1044C0009A99993E10B5041C2020FFF7B3FF0020F5
:1044D000FFF7CAFF2120FFF7ADFF0020FFF7C4FF61
:1044E0002220FFF7A7FF201CFFF792FFA0238822BE
:1044F0001B06042192019950094A802149049950D0
:10450000802149019950074B074CA02180200906C2
:1045100040010851C046013B8850002BF4D110BD2A
:1045200004220000409700008422000010B52020E3
:10453000FFF780FF0020FFF797FF2120FFF77AFFAA
:104540000020FFF791FF2220FFF774FF0020FFF704
:104550005FFFA02388221B060421920199500A4A7A
:10456000802149049950802149019950074B084CFA
:10457000A0218020090640010851C046013B885017
:10458000002BF4D110BDC04604220000409700006B
:104590008422000070B5794EA02501242D06FFF776
:1045A0007BFFAC510A20FCF7CEFB754B0A20EC5088
:1045B000FCF7C9FBAC510A20FCF7C5FB201CFFF738
:1045C00039FF8E20A040FFF74FFF0220FFF732FF98
:1045D0008020A040FFF748FF0320FFF72BFF69482A
:1045E000FFF742FF0820FFF725FF6748FFF73CFF72
:1045F0000C20FFF71FFF0020FFF736FF0F20FFF70B
:1046000019FF201CFFF730FF2020FFF713FF0020C9
:10461000FFF72AFF2120FFF70DFF0020FFF724FFFF
:104620001020FFF707FF0020FFF71EFF1120FFF704
:1046300001FF80204001FFF717FF0A20FCF783FBF2
:104640003020FFF7F7FE0020FFF70EFF3120FFF7C5
:10465000F1FEDB20FFF708FF3220FFF7EBFE002022
:10466000FFF702FF3320FFF7E5FE0020FFF7FCFE17
:104670003420FFF7DFFEDB20FFF7F6FE3520FFF7E3
:10468000D9FE0020FFF7F0FE3620FFF7D3FEAF2063
:10469000FFF7EAFE3720FFF7CDFE0020FFF7E4FE2C
:1046A0003820FFF7C7FEDB20FFF7DEFE3920FFF7DB
:1046B000C1FE0020FFF7D8FE0A20FCF744FBFF20D4
:1046C000FFF7B8FE0320FFF7CFFE5020FFF7B2FE42
:1046D0002E48FFF7C9FE5120FFF7ACFE2C48FFF72C
:1046E000C3FE5220FFF7A6FE2A4D0520FFF7BCFEB1
:1046F0005320FFF79FFE281CFFF7B6FE5420FFF75C
:1047000099FE2548FFF7B0FE5520FFF793FE234C96
:104710000320FFF7A9FE5620FFF78CFE201CFFF7B1
:10472000A3FE5720FFF786FE1D48FFF79DFE582089
:10473000FFF780FE281CFFF797FE5920FFF77AFE4F
:10474000201CFFF791FEB020FFF774FE1548FFF71D
:104750008BFEFF20FFF76EFE0020FFF785FE07208F
:10476000FFF768FE1048FFF77FFEC820FCF7EBFA62
:104770002220FFF75FFEFFF7D9FE70BD0422000084
:10478000842200003010000008080000030200002E
:10479000090A0000211000000206000003070000C3
:1047A000070500000125000017100000F8B584B2CD
:1047B000171CDB2C25D88DB2AF2D22D82020FFF777
:1047C00039FE281CFFF750FE2120FFF733FE201C86
:1047D000FFF74AFE2220FFF72DFEA024882324069F
:1047E00004229B01E250074D802380265B04760162
:1047F0006351381C6651FFF70BFE034BE650C04671
:104800006651F8BD0422000084220000F0B585B096
:104810000AAC24880394904202DD041C101C221C64
:10482000994202DD0C1C191C231CDC2849DCB02930
:1048300047DC141CDC2A00DDDC2422B202921A1CA4
:10484000B02B00DDB022CD43ED17C64313B2F617EF
:104850002940019306400DB2029B9E4231DC20208C
:10486000FFF7E8FDA8B2FFF7FFFDB6B22120FFF782
:10487000E1FD301CFFF7F8FD2220FFF7DBFDA02350
:1048800088221B069201042199500F4F8022520466
:10489000DA5180225201DA512C1C019A94420DDA2D
:1048A0000398FFF7B5FD0949A02380221B0652019A
:1048B0005A50C0460134DA5124B2EEE7013636B21E
:1048C000CAE705B0F0BDC046042200008422000003
:1048D000F0B5DFB0059020200491FFF7ABFD00207C
:1048E000FFF7C2FD2120FFF7A5FD0020FFF7BCFD6B
:1048F0002220FFF79FFDA02388221B06920104219E
:104900009950A24C802252041A5180225201002553
:104910001A510395039E059D7210AA180023117861
:10492000049E08114000805B1825ED186E46A853C0
:1049300006ADE8180F252940049E4900895BB03078
:10494000023301803732B02BE9D100250295029D58
:1049500006AEA85B80278E4DA02636067F01FFF7A6
:1049600057FD7751C04637517751C046029B06AA82
:10497000D218375150880192FFF74AFD7751C0464F
:1049800037517751C046019A37519088FFF740FD63
:104990007751C04637517751C046019B3751D8886F
:1049A000FFF736FD7751C04637517751C046019A1F
:1049B00037511089FFF72CFD7751C0463751775199
:1049C000C046019B37515889FFF722FD7751C046F9
:1049D00037517751C046019A37519089FFF718FD3A
:1049E0007751C04637517751C046019B3751D8891E
:1049F000FFF70EFD7751C04637517751C04637510A
:104A0000029E10360296B02EA1D100260296029E7A
:104A100006AAB05A8027A02636067F01FFF7F8FCC9
:104A20007751C04637517751C046029B06AAD2182B
:104A3000375150880192FFF7EBFC7751C046375150
:104A40007751C046019A37519088FFF7E1FC7751C2
:104A5000C04637517751C046019B3751D888FFF780
:104A6000D7FC7751C04637517751C046019A37512C
:104A70001089FFF7CDFC7751C04637517751C046BA
:104A8000019B37515889FFF7C3FC7751C046375116
:104A90007751C046019A37519089FFF7B9FC775199
:104AA000C04637517751C046019B3751D889FFF72F
:104AB000AFFC7751C04637517751C0463751029EFF
:104AC00010360296B02EA2D15EAE029632AE01969C
:104AD000019E80273088A02636067F01FFF798FCCC
:104AE0007751C04637517751C046019A37515088A7
:104AF000FFF78EFC7751C04637517751C046019B76
:104B000037519888FFF784FC7751C0463751775169
:104B1000C046019A3751D088FFF77AFC7751C046DA
:104B200037517751C046019B37511889FFF770FC08
:104B30007751C04637517751C046019A3751508955
:104B4000FFF766FC7751C04637517751C046019B4D
:104B500037519889FFF75CFC7751C0463751775140
:104B6000C046019A3751D089FFF752FC7751C046B1
:104B700037517751C0463751019E029A103601963F
:104B80009642A5D132AE019604E0C0460422000050
:104B900084220000019E80273088A02636067F01EF
:104BA000FFF736FC7751C04637517751C046019A1E
:104BB00037515088FFF72CFC7751C0463751775159
:104BC000C046019B37519888FFF722FC7751C046B9
:104BD00037517751C046019A3751D088FFF718FCFA
:104BE0007751C04637517751C046019B37511889DC
:104BF000FFF70EFC7751C04637517751C046019AF6
:104C000037515089FFF704FC7751C046375177512F
:104C1000C046019B37519889FFF7FAFB7751C04690
:104C200037517751C046019A3751D089FFF7F0FBD1
:104C30007751C04637517751C0463751019E029A8D
:104C4000103601969642A5D1039D023503956E2D2F
:104C500000D05FE65FB0F0BD124B0222196830B59C
:104C600011421DD01A60104B01221A700F4B802286
:104C70001B68920081219A58890000225A500C4BDF
:104C80000C4D1C780C4B64081C800C4B1888411C84
:104C900089B22C54802019804000814200D11A80B2
:104CA00030BDC04600400140A8230010D41A0010B7
:104CB000F41A0010281B00108C2300105823001039
:104CC00038B51822041C0D1C002100F01BFD201C0F
:104CD000291CFBF778FE201C38BD000010B543B23C
:104CE0008EB00C4C002B01DB207001E07F23237081
:104CF000812168460901084A00F042FB2278684693
:104D00005E2100F088FB6846247800F083FB201CBD
:104D10000EB010BDC4230010140A000038B5094CB1
:104D2000051C2368013304D1074808492422FBF7F6
:104D3000F7FD002D01D0E36800E0236962681A6086
:104D400038BDC04690230010317300004973000045
:104D5000A02380221B065205C10701D5274900E088
:104D600027495A50A023802142101B068905D007ED
:104D700001D5224800E0224819505210A02380217A
:104D80001B06C905D00701D51C4800E01C48195076
:104D90005210A02380211B060906D00701D5174811
:104DA00000E0174819505210A02380211B06490328
:104DB000D00701D5134800E0134819505210A02322
:104DC00080211B068903D00701D50E4800E00E485C
:104DD00019505210A02380211B06C903D00701D50A
:104DE000084800E008481950511080221204002998
:104DF00001D0044900E004495A50704704220000E1
:104E000084220000082200008822000038B51A4CD5
:104E10001A49201CFCF71CFB201C0F21FCF7F7FA99
:104E2000201C174C1749FCF7CFFA201C00F00EFB92
:104E3000FFF7C4F8051C201C00F028FB636908225A
:104E400013436361281C104900F052FDE06163695F
:104E5000102213436361636801221343636080255A
:104E60000A4CC023ED029340E55012200849FBF79D
:104E700071FF256038BDC046D41A001040270200DB
:104E800000400140CDCCCC3D2256000000E100E0C6
:104E9000594C000008B512491248FFF711FF12499A
:104EA0001248FFF70DFF12491248FFF709FF124998
:104EB0001248FFF705FF12491248FFF701FF124998
:104EC0001248FFF7FDFE12491248FFF7F9FE12499A
:104ED0001248FFF7F5FE12481249FFF7F1FE08BD30
:104EE000D0380100101B0010D43A0100AC23001090
:104EF000D83C010028230010DC3E010040230010B4
:104F000044290200DC1A0010482B02005C23001028
:104F10004C2D0200F81A0010502F020074230010CC
:104F200090230010A4220100F0B585B0061C039167
:104F300072B6474B984202D8050B030512E0454B69
:104F40001C2598420DD8444B1B25984209D8434B49
:104F50001A25984205D8424B002583426D411923FA
:104F60005D1B73045A4253413E4C3F4FDBB20293E8
:104F70003223236065603D4BA560201C391C984797
:104F80003B68002B01D0012060E0029B002B04D184
:104F9000E4239B029E4220D040E034232360344B24
:104FA000FA211B688900181C6560A560019300F058
:104FB0009FFC2E4BE060391C201C98473B68002B5F
:104FC000E1D1322323606560284BA560201C391C89
:104FD00098473B68002BDBD0D5E73B232360E023D9
:104FE0009B006360234BFA21A360214B8900186862
:104FF00000F07EFC1C4FE0601C4B201C391C9847C5
:105000003B68002BBFD1322323606560174BA5603E
:10501000201C391C98473B68002BB4D133232360F4
:10502000039BFA21A36080235B00E360104B89009F
:105030001868666000F05CFC0B4D2061291C201C88
:105040000A4B9847286800289DD162B605B0F0BD8C
:10505000FF7F0100FF7F0300FFFF0200FF7F0200D0
:10506000FFFF0100C8240010DC240010F11FFF1F07
:1050700018010010FF03000013B56C460734211C13
:10508000012204F02BF8207816BD07B56B46D971C4
:105090000733191C012203F0FBFF07BD024B1A68FE
:1050A0000A321A607047C046EC240010044B054ACF
:1050B00007215A6000229A601960034B1A607047FA
:1050C00010E000E0FF520700EC240010014B1868CC
:1050D0007047C046EC24001010B50020FBF776FDA9
:1050E000041CFCF727FC034B1878001900F0AEFBFA
:1050F00010BDC046FC01001008B58022A0231B068D
:10510000920199580420014399502A4A80219858C5
:10511000490101439950985880214904014399500D
:105120009958012001439950234A24489958014332
:10513000995023480021FCF717F922480021FCF779
:1051400013F921480021FCF70FF920480021FCF752
:105150000BF91F480021FCF707F91E480021FCF756
:1051600003F91D480021FCF7FFF81C480021FCF75B
:10517000FBF81B480021FCF7F7F81A480021FCF760
:10518000F3F819480021FCF7EFF818480021FCF764
:10519000EBF817480021FCF7E7F816480021FCF768
:1051A000E3F815480021FCF7DFF814480021FCF76C
:1051B000DBF808BD0420000008200000F8FF07000D
:1051C0000007020004090200080B02000C0D020097
:1051D000100F020014110200181302001C15020027
:1051E0002017020024190200281B02002C1D0200B7
:1051F000301F020034210200382302003C25020047
:1052000038B50368041C0D1C013304D10648074956
:105210002422FBF785FB6368002D01D0E26800E0E3
:105220002269136038BDC046317300004973000025
:10523000036810B5041C013304D1064806492C222A
:10524000FBF76EFB636960681B681840431E98415A
:1052500010BDC046317300004973000008B501213C
:10526000FBF754FF08BD38B5041C251CFFF7F6FFFB
:105270001835606BFBF75CFD281C0121FFF7C0FFB0
:10528000201C0121FFF7BCFF606BFBF751FD201CC8
:105290000021FFF7B5FF606BFBF74AFD281C0021DA
:1052A000FFF7AEFF606BFBF743FD38BD10B5041C84
:1052B000FFF7D4FF606BFBF73BFD201C0021FFF7DD
:1052C0009FFF606BFBF734FD201C01211830FFF7B6
:1052D00097FF606BFBF72CFD201C0121FFF790FF6F
:1052E00010BDF7B5041C0191FFF7B8FF0825606BEE
:1052F0000126FBF71DFD013D019B311CA940271C28
:105300001940201C1837FFF77BFF311C381CFFF7B2
:1053100077FF606BFBF70CFD381C0021FFF770FF77
:10532000002DE4D1311C201CFFF76AFFF7BD38B512
:10533000041C251CFFF792FF1835201C0121FFF7E4
:105340005FFF281C0121FFF75BFF201C0021FBF7FA
:10535000DDFE0421201CFBF7D3FE606BFBF7E8FCAD
:10536000281C0021FFF74CFF201CFFF761FF0023E2
:10537000984203D1606BFBF7DBFC0123181C38BD9E
:10538000F8B51826041C0D1C171C0021321C00F057
:10539000B9F9201C291CA519FBF7FBFA321C281CA3
:1053A000002100F0AFF9281C391CFBF7F2FA281C89
:1053B000FFF754FF281C0421FBF7A2FE201CFFF777
:1053C0004DFF0421201CFBF79BFE231C30330026DD
:1053D00001271E70281C6763FFF740FF201CFFF7A2
:1053E0003DFF391C201CFFF70BFF311C281CFFF769
:1053F00007FF606BFBF79CFC201CFFF757FF201C8E
:10540000FFF754FF201CFFF751FF201CFFF74EFF52
:10541000201CF8BD704770B50E1C151C041CFFF74E
:1054200022FF0123311C9943201CFFF75AFF201C47
:10543000FFF77DFF291C201CFFF753FF201CFFF7FF
:1054400076FF201CFFF732FF70BD00000B4B984227
:1054500008D00B4B984207D00A4BC018431E984106
:10546000083002E00A2000E00720074B0121DA6F34
:105470008140081C1043D8677047C0460080014037
:1054800000C000400000FFBF0480044000224368C9
:10549000426001228260022242608268002AFCD1BE
:1054A0004360704708B50A4B187801F0CDF9011C2C
:1054B000084800F0C9FC084900F0AAFEF621890559
:1054C00000F0A6FE00F03CFB044B188008BDC0466F
:1054D00034010010000070420044AC46F424001077
:1054E00007B5FDF741F8FCF7CBFF00280DD0582396
:1054F00000200093011C021C6E23FDF7FFF800281A
:10550000F1D00248FEF752F9EDE70EBDF08B000036
:1055100008B50248FCF732FB08BDC046F62400106F
:10552000F0B556464D4644465F46F0B4524A4F00E9
:105530007F0D83B0BE18041C0D1C89468A46804628
:105540000197132E2ADC002E56DB4C4F021C3741EC
:105550003B1C0B4003439C46BB4667460B1C002F7D
:1055600013D0424B404A01F0BFF9414A414B00F091
:1055700099FA002807D0002D4EDB53465F46BB4307
:105580000022994690464B464246101C191C03B017
:105590003CBC90469946A246AB46F0BD332E0BDD8F
:1055A0000B1C8021021CC9008E42EED1291C01F087
:1055B0009BF9021C0B1CE8E7019F314ABB18012232
:1055C0005242DA4093465F46021C0B1C0742DCD075
:1055D000264B254A01F088F9254A264B00F062FA4D
:1055E0000028D0D0002D1DDB42465B469A439046F2
:1055F000D1464B464246C8E71C4B1B4A01F074F9A2
:105600001B4A1C4B00F04EFA0028BCD0002D17DBC3
:105610000027B846B946B6E780235B0333415E19DD
:10562000B246AAE7142E19D0164B019A9F1A0123ED
:10563000BB401B199C420FD96F1CBA469846D3E752
:105640006B005B081C4302D10027B8469BE70E4F56
:1056500000239846B94696E79846C5E76B1C9A46DC
:10566000C2E7C046C046C0469C7500883CE4377E11
:10567000000000000000000001FCFFFFFFFF0F0022
:10568000EDFBFFFF330400000000F0BFC046C04642
:1056900070B50E4B0E4D0024ED1AAD101E1CAC4221
:1056A00004D0A300F35898470134F8E703F018FB3F
:1056B000084B094D0024ED1AAD101E1CAC4204D05D
:1056C000A300F35898470134F8E770BDEC8C000054
:1056D000EC8C0000EC8C0000188D000008B5034B2A
:1056E000011C186800F05EF808BDC0469801001063
:1056F00008B5034B011C186800F00CF808BDC04643
:1057000098010010031C8218934202D019700133D3
:10571000FAE7704730B5002940D004390B68002BF8
:1057200000DAC9181E4A1368141C002B02D14B6002
:10573000116033E099420FD208680A189A4205D1E5
:1057400013685268C01808604A6000E04B6021602E
:1057500024E08A4203D8131C5A68002AF9D11D6834
:105760005C198C420BD1096869185818196090426D
:1057700014D114685268091919605A600EE08C42FD
:1057800002D90C23036009E008680C18944203D185
:1057900014685268001908604A60596030BDC046FC
:1057A000FC24001070B50323CD1C9D430835061C56
:1057B0000C2D01D20C2501E0002D3FDB8D423DD3A5
:1057C000204B1C681A1C211C002913D00868431B9D
:1057D0000DD40B2B02D90B60CC181EE08C4202D1E9
:1057E000636813601AE0486860600C1C16E00C1CCB
:1057F0004968E9E7144C2068002803D1301C00F008
:1058000053F82060301C291C00F04EF8431C15D0C2
:10581000C41C03239C4384420AD12560201C0B3006
:105820000722231D9043C31A0BD05A42E25008E0CE
:10583000211A301C00F038F80130EED10C2333600F
:10584000002070BDFC240010F824001038B5104B67
:10585000051C1C68A36B002B15D11820FFF73EFF19
:105860000C4BA06303800C4B43800C4B83800C4B90
:10587000C3800C4B0381052343810B2383810122C9
:10588000002302614361A36B00221D615A6138BD90
:10589000980100100E330000CDABFFFF3412000062
:1058A0006DE6FFFFECDEFFFF38B5074C0023051C5B
:1058B000081C2360FBF764F9431C03D12368002B09
:1058C00000D02B6038BDC04600250010031C0A78AC
:1058D00001311A700133002AF9D1704702B47146C0
:1058E00049084900095C49008E4402BC7047C04623
:1058F000002934D00123002210B488422CD3012483
:105900002407A14204D2814202D209011B01F8E717
:10591000E400A14204D2814202D249005B00F8E7D0
:10592000884201D3401A1A434C08A04202D3001BFC
:105930005C0822438C08A04202D3001B9C0822432F
:10594000CC08A04202D3001BDC082243002803D06D
:105950001B0901D00909E3E7101C10BC704700289F
:1059600001D00020C04307B4024802A140180290B1
:1059700003BDC046D90000000029F0D003B5FFF7F1
:10598000B9FF0EBC4243891A1847C046002941D0CE
:1059900010B4041C4C40A44601230022002900D569
:1059A0004942002800D5404288422CD301242407D4
:1059B000A14204D2814202D209011B01F8E7E400AE
:1059C000A14204D2814202D249005B00F8E788423A
:1059D00001D3401A1A434C08A04202D3001B5C08B2
:1059E00022438C08A04202D3001B9C082243CC080F
:1059F000A04202D3001BDC082243002803D01B096D
:105A000001D00909E3E7101C6446002C00D5404290
:105A100010BC7047002806D003DB0020C0434008BC
:105A200001E08020000607B4024802A1401802905D
:105A300003BDC046190000000029EBD003B5FFF7F5
:105A4000A7FF0EBC4243891A1847C0467047C0469C
:105A50008446101C62468C46191C634600E0C04612
:105A60001FB501F02BFB002801D40021C8421FBD47
:105A700010B501F05BFA4042013010BD10B501F0E5
:105A80001DFB002801DB002010BD012010BDC04619
:105A900010B501F013FB002801DD002010BD01202E
:105AA00010BDC04610B501F08BFA002801DC0020C3
:105AB00010BD012010BDC04610B501F081FA0028CC
:105AC00001DA002010BD012010BDC0468446081C2C
:105AD0006146FFE71FB500F04FFB002801D400210D
