:1000000000800010FD000000450E0000470E0000BB
:1000100000000000000000000000000000000000E0
:10002000000000000000000000000000490E000079
:1000300000000000000000004B0E00007D470000A3
:100040004D0E00004D0E00004D0E00004D0E000044
:100050004D0E00004D0E00004D0E00004D0E000034
:100060004D0E00004D0E00004D0E00004D0E000024
:100070004D0E00004D0E00004D0E00004D0E000014
:100080004D0E00004D0E00004D0E00004D0E000004
:100090004D0E00004D0E00004D0E00004D0E0000F4
:1000A0004D0E00004D0E00004D0E00004D0E0000E4
:1000B0004D0E00004D0E00004D0E0000000000002F
:1000C0000C860000000100109C0000000C8600005F
:1000D00000000020000000000C860000004000200E
:1000E000000000009C010010341A000000000020F5
:1000F00000000000004000200000000010B5114C7E
:10010000114B9C4207D2206861680C34231F1A6887
:1001100000F09DFEF4E70D4B9C4205D2206861681B
:1001200000F09EFE0834F6E700F0FAFD084B002BC5
:1001300002D000E000BFFEE704F0CAFC04F0EEFBD2
:10014000F9E7C046C0000000E4000000FC00000029
:100150000000000010B5064C2378002B07D1054B9A
:10016000002B02D0044800E000BF0123237010BD23
:100170009C010010000000000C86000008B5084B30
:10018000002B03D00748084900E000BF0748036878
:10019000002B03D0064B002B00D0984708BDC0466B
:1001A000000000000C860000A00100109C0100105F
:1001B0000000000008B5011C014800F051FD08BD19
:1001C0006402001008B50348FF2100F049FDC0B2E9
:1001D00008BDC04664020010F8B543B2041C0D1CF3
:1001E000002B07DA77200021FFF7F6FF012832D82D
:1001F0007F231C40A02688239B0136068027F750CA
:10020000FFF7E0FF8A239B01F750FFF7DBFF201C7D
:10021000FFF7D0FF280EFFF7CDFF280CC0B2FFF785
:10022000C9FF280AC0B2FFF7C5FFE8B2FFF7C2FF57
:10023000402C04D08720482C02D0012000E09520DB
:10024000FFF7B8FF0A24FFF7BDFF030603D5013C03
:10025000E4B2002CF7D1F8BD73B58823404DA0243B
:100260009B0180222406E250281C3E4900F0EEFC4F
:10027000281C0821002200F0DDFC84239B01E358A8
:100280006425013DEDB2FFF79DFF002DF9D140201F
:10029000291CFFF7A1FF041E012C35D1D5214820D0
:1002A0004900FFF799FF012815D1FFF78BFF01AE39
:1002B000A8550135042DF8D1B378012B24D1F3785A
:1002C000AA2B21D1284C8021C905E920FFF784FF02
:1002D000011E3BD11AE0E920291CFFF77DFF4126D2
:1002E000012801D80224E926204D301C0021FFF707
:1002F00073FF00282FD1002D06D0802150208900C7
:10030000FFF76AFF002813D0002411E0002CFBD077
:100310007A20FFF761FF0028F6D1041CFFF752FF97
:1003200030550134042CF9D133785A0600D50C2409
:100330000F4BA0221C70882380219B011206D150F4
:10034000FFF740FF60426041C0B276BD013CA4B2FD
:10035000002CD9D0B7E7013DADB2002DD4D0C4E711
:1003600064020010002D3101E02E0000A8610000A1
:10037000B8010010F8B51D1C234B071C1B78141C7A
:100380001A0700D449025120FFF726FF002801D0A8
:1003900001262FE01D4EFFF715FFFF2804D1013E77
:1003A000B6B2002EF4D0F6E7FE28F1D1184E761B37
:1003B000361BB6B2002C02D13C1E05D10EE0013C2A
:1003C000FFF700FFA4B2F5E7FFF7FCFE7A192070F3
:1003D000013492B2A3B29A42F6D105E0013DADB22A
:1003E000FFF7F0FE002DF9D1013EB6B2FFF7EAFEAD
:1003F000002EF9D18823A02280219B011206D15022
:10040000FFF7E0FE301CF8BDB801001030750000A9
:1004100002020000064B821E1B680020D9680239C8
:100420008A4203D258789B695043C0187047C0462F
:10043000BC0100100F4B10B51A68002303808368BD
:10044000041C012B14D0D16801208B4211D2002B47
:1004500003D11178032900D15369E360002B03D045
:10046000181CFFF7D7FF00E050692061002000E072
:10047000181C10BDBC010010F0B5324B85B0041C37
:100480001D6801285AD9EA68904257D22E78022E68
:1004900032D0032E40D0012E50D183B25A08D31847
:1004A0009BB2DA055B0A0193274BD20D03AF296992
:1004B0009A4204D0019B381C591802230EE0019B7C
:1004C000381C5918331CFFF755FF021E36D1296915
:1004D000019B01316846C9180D30331CFFF74AFFF4
:1004E00000282BD17B7838781B0203431811E207D0
:1004F00025D41805000D22E02B69010AC4B203AF10
:10050000C9186200381C331CFFF734FF002815D1CE
:1005100078783B7800020FE02B697F22C10903AE97
:100520001440C918A200301C0423FFF723FF002841
:1005300004D1707833780002184300E0012005B040
:10054000F0BDC046BC010010FF01000070B5058879
:10055000154B0135ADB2041C1E68002D01D10320DE
:1005600021E00369002BFAD02A0718D10133036177
:10057000C068002803D1B388AB42F0D90FE072788D
:100580002B09013A1A420AD1FFF776FF012809D94F
:10059000F3689842E3D2E060FFF73CFF20612580DA
:1005A000002000E0012070BDBC010010F8B5041C63
:1005B0000D1C2B78202B01D10135FAE72F3B5A4235
:1005C00053410026ED18A6602B78202B2BD8201C39
:1005D000FFF730FF3E4B1B689B681E7076E0337858
:1005E000002B65D0F27A082313405AD16268F15C7F
:1005F0000133D01801380078884252D10B2BF6D144
:10060000D37A002B61D13B689B68DA7AD1065AD540
:100610005A7D197D12020A43D97E9B7E090212047B
:100620000B431343A3606068021C031C0B3293420C
:1006300003D0202119700133F9E70022131C08218F
:100640005E1CEB5CF6B2202B10D92F2B0ED02E2B7C
:1006500034D08A420AD21F1C613F192F01D8203B97
:10066000DBB2571C8354FAB2331CE9E70022202185
:1006700099425241C272201CAD19FFF7DBFE0028DF
:1006800014D1134F3B689E6822880F231A405201F1
:10069000301C21692023FFF76DFE00289FD0012028
:1006A00014E0201CFFF752FF0028EDD003280DD1E5
:1006B0006368D87A43425841033007E00829D5D10E
:1006C0000A1C0B21D0E7042000E00020F8BDC04642
:1006D000BC01001030B51B4B011C1D6891B00620F9
:1006E000002D2CD0002308ACAB70AC6000AB03A88D
:1006F0000493FFF75BFF002821D123780320002B10
:100700001DD0E27A1023134019D1617D227D0902A8
:100710001143E27EA07E1202090402430A436A6288
:10072000E17FA27F090612040A43217F181C0A43B5
:10073000617FEB6109020A432A620122AA7011B0AB
:1007400030BDC046BC010010F7B5314B01901C68AC
:1007500000230D1C171C13809C4257D0A378052042
:10076000D90754D5226AE169531A9D4200D99DB236
:10077000019A0092002D43D0E669F3051BD1700A5F
:10078000617804F019FB00290BD1002E01D1606AB9
:1007900002E0A06AFFF770FE012833D90023A062AF
:1007A000E370A06AFFF736FE00282BD0E3785A1CCE
:1007B000C318E270E362E3692E1CDA058023D10DD1
:1007C0009B005B1A9BB29D4200D91E1C01980099A8
:1007D000431E9841B6B240420840D20DE16A331C34
:1007E000FFF7C8FD00280DD1E269AD1B9319E36145
:1007F000009BADB29B1900933B88F6183E80B9E789
:10080000281C04E00023A370012000E00620FEBDA8
:10081000BC0100102A4BF7B51C68002C4CD0A27804
:100820000523D10749D5236A051E9D4200D91D1C09
:100830000022E369E261954238D066787602002BA7
:1008400012D0311C681E5F1E04F072FA311C019038
:10085000381C04F06DFA019A824205D373423B4082
:10086000E361ED1AA06A0EE0606AA0620BE0FFF798
:1008700003FE01281CD9E368984219D2E169A062FD
:100880008B19E361AD1BB542F1D8E2695319E361FD
:10089000FFF7C0FD00280BD06B0ADAB2ED0501D1DD
:1008A000E27003E001321818E270E062002304E015
:1008B0000023A370012300E00623181CFEBDC046E0
:1008C000BC01001030B5154B051C1B688DB006200F
:1008D000002B20D004AC9C6001AB6B60281CFFF7A0
:1008E00065FE002814D12378002B0ED0E37A042073
:1008F000DA0610D5627D237D12021A43E37EA17EC3
:100900001B0212040B431343AB60281CFFF792FD3C
:10091000032800D104200DB030BDC046BC0100103A
:1009200038B5051C0C1C131C291C0248221C00F0A5
:1009300003F838BD806600000FB404B0704770B58E
:100940000D1C041C161C00F087FB013507D0201C71
:10095000002100F0A9FB201C311C00F09FFB70BDA2
:1009600008B50122FFF7EBFF08BD000010B5044BEE
:10097000041C083303601C3000F06EFC201C10BD0A
:10098000B866000010B5041CFFF7F0FF201C00F053
:1009900071FA201C10BD0000036810B5041C01335F
:1009A00004D1064806492C22FFF7BAFF6369606844
:1009B0001B681840431E984110BDC046C866000021
:1009C000E06600000F4B70B50833051C08C5041C19
:1009D0000E1C281C0021182204F0B4F80023201C4F
:1009E000311CE36123626363A363E364064A231C4F
:1009F0001C3000F0CFFB281C311CFFF7B1FF201C7E
:100A000070BDC046B8660000770A000008B5043023
:100A1000FFF7C2FF08BD08B50A1C031C1C300029E3
:100A200005D00022196201215A630A1C00E001214D
:100A300000F026FC08BD08B50A1C031C1C30002968
:100A400005D000229963DA640221012200E002212C
:100A500000F016FC08BD08B54369011C002B04D149
:100A60000368002B06D0984704E00068002801D0F6
:100A70000431984708BD08B5012903D0022904D1E3
:100A8000383000E02030FFF7E6FF08BD10B5041C49
:100A9000421C12D00B685A1C0CD0A34208D1201C57
:100AA000896800F013FC201C002100F02BFC04E0FE
:100AB0000C31EFE70148FFF73FFF10BD2A67000048
:100AC00008B588420AD0431C07D0013106D004483B
:100AD000FFF732FF0120404200E0081C08BDC0467D
:100AE0003B6700000B685A1C05D0834201D148685F
:100AF00002E00C31F6E7181C7047000010B5041C2A
:100B0000431C07D0FFF7EEFF041C431C02D1024830
:100B1000FFF712FF201C10BD4C670000074A136846
:100B20001818EFF30881884205D3054B0C220120E9
:100B30001A60404201E01060181C70470401001068
:100B4000CC1B0010064B10B51B68041C002B00D0FA
:100B50009847044B1B68002B01D0201C984710BD00
:100B600008010010140100100A4B10B51B68041C8A
:100B7000002B04D09847002801D1FFF7E3FF064B74
:100B80001B68002B01D0984700E0181C002C00D0F7
:100B9000206010BD0C01001010010010014B083343
:100BA000036070479067000010B5044B041C0833C5
:100BB000036000F05FF9201C10BDC0469067000084
:100BC00073B5041C0E480025083020600820E06042
:100BD0000C48261D606106986560257225610090AD
:100BE000301C00F001FD301C2B1CE168226900F074
:100BF0007BFD301C616900F0ADFD201C76BDC04658
:100C00009067000040420F0070B5094D041C2B682E
:100C100083420BD0061D301CE1682269002300F0DE
:100C200063FD301C616900F095FD2C6070BDC0460D
:100C3000C001001008B5044B0261C16000221A60B7
:100C4000FFF7E2FF08BDC046C001001008B5034B26
:100C5000002241611A60FFF7D7FF08BDC0010010F4
:100C600038B50D1C041CFFF7CFFF291C201D00F018
:100C7000B7FD38BD38B50368041CDB689847636866
:100C80005A682368002A02D19B68984714E05B6881
:100C90001568984763682D1A002D08DC5A6891681A
:100CA00059601B68002BEAD050689847E7E75B68FB
:100CB000226818681369984738BD000008B50248D3
:100CC000FFF7D8FF08BDC046BC67000038B5041C5C
:100CD00000F0C2FD051C00F0BFFD401BA042FAD38E
:100CE00038BD08B5FA239B005843FFF7EFFF08BD56
:100CF0000A4A70B5956893682C1C002B0AD180268F
:100D000076059C195E5904332660C02BF7D18024E8
:100D10006405946010308000015170BD00ED00E06A
:100D20007FB53E4A8021D06F49023D4B0143D167D8
:100D300023223C499A6001220A603B493B4D0A60EC
:100D400000228E211A6289005858202428400190E0
:100D50000198A0430190019CC820000220435850F4
:100D600000920099324A914203D8C046009A01325B
:100D7000F6E7012200211A645A6459645A64596CD6
:100D8000274AC807FBD58E21890050588024284067
:100D90000290029820430290029EC820000206435F
:100DA000565023269660565835400395039DA5431B
:100DB0000395039C20435050D8680121184A0842EB
:100DC000FAD0032010670020516750675167586FB1
:100DD0000121134A0842FAD08E20916780001558ED
:100DE000144C2C4014501558134C2C401450002017
:100DF0009164D164D064D164DA6CD107FCD5084A1F
:100E000023211161596901221142FBD00B4B0021B2
:100E1000196019600A4B1A607FBDC0460480044007
:100E200000800440F0400440F4400440FF250000EE
:100E3000C3090000FFFBFFFFFFFEFFFFC08004406F
:100E4000C88004407047704770477047704710B5BE
:100E50000023934203D21C585C500433F9E710BDC1
:100E600000238B4203D200221A500433F9E7704763
:100E70000020704708B503F05BFE08BD104B13B5AA
:100E80009A680178120B12039A609C6801228A40CA
:100E900022439A609A680B4802439A601869084A8C
:100EA000019001980028F9DA083189008B580193E4
:100EB00093685B005B08936001980004000D16BD09
:100EC00000C001400000088470B5061CFFF7D6FF83
:100ED000041C301CFFF7D2FF051C301CFFF7CEFFAF
:100EE000AC4202D9231C2C1C1D1C854200D9051CB8
:100EF000281EA04200D2201C70BD000073B5224DF8
:100F0000061C0C1C081C291CFFF7F8FDC3B233702B
:100F1000FF2B04D11D481E493522FFF701FD201C7F
:100F2000291CFFF7B3FDE4051A4BE40DE418236810
:100F3000802293432360184A8E239B00D058174980
:100F40000140019101991020814301910198C8212C
:100F500009020143D150124B8022D96F92010A43FA
:100F6000DA67104B1049186803F0E2FE802201385E
:100F70000E4BC0B2D20510431860191C0B68134009
:100F8000FCD10A4A136073BD28680000C4670000E2
:100F9000DC6700000040044000800440FF250000A2
:100FA000048004401801001020A1070000C0014087
:100FB00008B5FFF789FF04F007FE024904F0E8FADC
:100FC00008BDC0460108803910B5041C421C04D17C
:100FD000164817491E22FFF7A3FC164B1A68002A71
:100FE00006D101221A60144B1449DA6F0A43DA67FA
:100FF0000121002C12D0124B9C420FD0114B9C426D
:101000000CD0114B9C4209D0104B9C4206D0104B87
:101010009C4203D00F4BE1184B425941201CA404C1
:1010200000F054F9E40E0120A04010BDCD66000090
:10103000C4680000CC01001004800440400001009E
:10104000281400002C16000030180000341A00008C
:10105000381C0000C4E1FFFF38B5041C0D1C2160E2
:101060004A1C11D0081CFFF7AFFF2D14074AAD0032
:10107000AB18074AE360AB18064A2361AB186361FB
:10108000054B6060ED18A56038BDC046002200A089
:10109000802200A0002100A0002000A008B5006868
:1010A00000F030F908BD000038B50368041C0D1CC1
:1010B000013304D109480A494322FFF731FC002DCE
:1010C00006D0012D09D1A368626819680A4303E0BC
:1010D000A36861681A688A431A6038BDC866000050
:1010E000C4680000F8B5144D01210C1C6B6A8440E3
:1010F000234220D0114B8700F85800281BD02B68C2
:10110000234218D16B68234206D0EB69234203D0F7
:101110000B4B1B689847EC612B69074E234209D0A3
:10112000336A234206D0054B0221D859044B1B6871
:10113000984734626C62F8BD004000A0D4010010F2
:10114000D001001008B50020FFF7CCFF08BD08B59E
:101150000120FFF7C7FF08BD08B50220FFF7C2FF57
:1011600008BD08B50320FFF7BDFF08BD08B5042082
:10117000FFF7B8FF08BD08B50520FFF7B3FF08BDAE
:1011800008B50620FFF7AEFF08BD08B50720FFF73A
:10119000A9FF08BDF0B5061C274885B0814202DDD5
:1011A0000120404246E02548026000222448950084
:1011B0002C580294002C39D12B5022483260C46F35
:1011C000214F224B3C43C4678803800F18244443BB
:1011D00049121F270F40111CBC465E316444890030
:1011E0000090CC508121890001245858271C974039
:1011F000384358500099A02388001B06C01880234C
:101200009B01C75861460397271C8F400399B94338
:10121000C1500F4B50B2E958FFF76AFD33681F22E7
:1012200013409C400B4B02981C6003E00132082ADB
:10123000BCD1B5E705B0F0BD13110200D00100101C
:10124000D4010010048004408000090000800440A4
:101250000C69000000E100E0036800219A00064BE1
:1012600010B5D150054A81239B000068D158012454
:101270008440A143D15010BDD4010010008004402F
:10128000036870B5104D012098402B68034200D1CF
:1012900068622E68C44326400B4B2E60012909D199
:1012A000002A03D05A68104358600CE05A68144072
:1012B0005C6008E0002A03D01A691043186102E05C
:1012C0001A6914401C6170BD004000A038B5041CB0
:1012D0000D1C431C04D1084808491522FFF720FBC8
:1012E000074BE405E40DE418226807239A431D40E8
:1012F000131C2B43236038BDCD6600002C69000011
:101300000040044038B5041C0D1C431C05D1114895
:1013100011491D22FFF704FB06E081231B019842BF
:1013200016D00E4B984213D0E4050D4BE40DE41893
:101330002268042D04D18023DB001343236007E0DF
:1013400018239A4303231D40EB00151C1D43256001
:1013500038BDC046CD6600002C690000140A0000AC
:101360000040044038B5051C0C1C081C002103F08B
:101370007FFD002809D1FE21201C890503F08CFD8A
:10138000002803D0FE24A40500E000242D6880235B
:101390009B00E85804F018FC211C04F0F9F803F055
:1013A0008FFD81239B00E85038BDF7B58023812253
:1013B000046895009B00E758081C6659E15004F04A
:1013C000A7FB0190301C04F0FFFB061C381C04F046
:1013D000FBFB011C301C03F0F7FE011C019804F01C
:1013E000D7F803F06DFD6051F7BD0000F7B5041CA0
:1013F0000F1C081C5149FFF781FBC3B2061CFF2BD1
:1014000002D14F48FFF798FA4E4801230178051C96
:101410000A1C1A4000D18EE01941194200D084E024
:101420002A78012199400A432A70474A990089582D
:101430006360216045498025C86F454A01902806B0
:10144000019D09330543CD67012051689840031C75
:101450000B435360381C3949FFF718FB27683D4A96
:101460003B683D4913433B607B680C2213437B6020
:101470007A683A4B13407B60394B7D68186803F0FB
:1014800057FC7F2301381840400128437860F0B2B0
:10149000012507281DD803F041FC040A1016040A90
:1014A0001016A023DB00FD5002222E4B10E0A123DA
:1014B000DB00FD5002222C4B0AE0A223DB00FD5092
:1014C00002222A4B04E0A323DB00FD50284B02221A
:1014D000FA508022C12352019B00FA500123C022FE
:1014E0005B429200BB502349C3229200B950802531
:1014F0002149C222AD009200BB5079517B5981260F
:10150000B6009B08BB517B68042293437B60201C80
:10151000FFF74BFF2468605904F056FB002104F0EC
:1015200037F803F0CDFCA051F7BD1448FFF704FADB
:1015300001235B4274E7131C72E7C0467469000024
:10154000E0690000F40100100C6A0000048004400F
:10155000008004400100060040420F001FF0FFFF22
:1015600018010010040500000C050000140500001F
:101570001C05000001100000204E0000FA69000068
:101580000A4B8022D96FD2050A43DA67084B012241
:10159000196880201143196000219960196801437E
:1015A00019601968914319607047C046048004406F
:1015B00000400240024B18680006C00F7047C0464A
:1015C00000400240014B98687047C046004002400E
:1015D000044B8022196891431960986019680A4386
:1015E0001A60704700400240F0B587B0041C0091BB
:1015F000081C314901920293FFF780FA2F49071C1A
:101600000198FFF77BFA2E4D0390291C0298FFF7F3
:1016100075FA2C4E0490311C0C98FFF76FFA039961
:101620000590381CFFF74CFA0599071C0498FFF742
:1016300047FA011C381CFFF743FA204F20600130A5
:1016400004D1214821494822FFF76AF92368204A3A
:1016500093420FD01F4A934219D11F4A8021D06F65
:10166000C9020143D1671D4A01211D4B11605A680F
:1016700004210AE0184A8021D06F09010143D16793
:101680001849174B01220A6059680A435A600098AA
:101690000949FFF7FBF90198391CFFF7F7F90298A0
:1016A000291CFFF7F3F90C9B013303D00C98311C74
:1016B000FFF7ECF907B0F0BD586B0000146A0000AA
:1016C000506A0000946B0000986A0000AC6A000049
:1016D0000000044000800540048004409C800440D9
:1016E0000080044094800440F8B51F1C0368151C5A
:1016F0005A680E1C02218A435A60331F041C0C2BAB
:1017000006D9032D04D9114811496522FFF708F9BC
:1017100023680122281C1968D5401040C0012A40C6
:10172000013E06439201090C090416430E431E6054
:101730005A680D218A43791E8F41BF0017435F60AD
:10174000236802215A680A435A60F8BDF26A000011
:10175000AC6A0000F7B5036802245A68051CA2436E
:101760005A601C4B0E1C1B680193211C019803F04E
:10177000DFFA04F0CDF9071C301C04F0C9F9011C94
:10178000381C03F021FDFC21890503F0B1FB04F0B6
:1017900007FF03F0E5F804F0CFFEFF2810DC2B680C
:1017A0000D4A1C61196801380A401A601A68000263
:1017B000104318602B6802215A680A435A6007E0F8
:1017C000802302345B009C42CFD10448FFF7B4F879
:1017D000F7BDC04618010010FF0000FF306B00008D
:1017E00010B50368DA689407FCD599600368DA6875
:1017F0005107FCD5986810BD38B5104B1A68002AFF
:101800001AD101251D600E4B8022D96FD2000A43E8
:10181000DA670C4B0C4C1868022363600B4903F029
:1018200087FA0138E0600A4965601320FFF760FA23
:101830008022084B12031A6038BDC046F801001020
:1018400004800440180100100080014040420F0055
:10185000BD0C000000E100E008B5044B1B68002B44
:1018600001D1FFF7C9FF024B986808BDF8010010CD
:1018700000800140034B012198615A690A435A6173
:101880007047C04600800140024B01215A698A43DB
:101890005A61704700800140014B01221A60704775
:1018A00000800140704770477047000008B5054848
:1018B000FFF77EFB044903F06BFE03F001FB034BD3
:1018C000187008BDFD01001000007F43FC010010EE
:1018D00008B50548FFF76CFB044903F059FE03F017
:1018E000EFFA034B187008BDFD01001000007F43A4
:1018F000FC01001008B502480249FFF7FFFA08BDD5
:10190000FD0100105C2E000008B502F041F908BD91
:1019100000230B4AD15C0B4A002906D0D15C01316F
:10192000C9B2FF2907D1022105E0D05C002803D00D
:10193000FF2800D0FF21D1540133072BE9D1704794
:10194000351A0010FF010010034B185C01384342A8
:101950005841C0B27047C046FF01001010B51E4B81
:10196000002219781A701D4A5078002801D00120F1
:101970001870D078002803D01878022420431870FB
:101980001078002803D01878042420431870907829
:10199000002803D0187808242043187010790028F4
:1019A00003D018781024204318705079002803D0F1
:1019B00018782024204318709279002A03D01A78CE
:1019C000402002431A701B78081C18409943044AAF
:1019D000044B1070197010BDFE010010351A001074
:1019E0000702001006020010014B18797047C0462C
:1019F000351A0010014B58787047C046351A001050
:101A0000014BD8787047C046351A0010094A0023A8
:101A10001380094A1370094A1370094A1370094B5D
:101A2000012252421A80084A084B1A60084B0922C8
:101A30001A7070470E0200100D0200101402001000
:101A4000080200100A0200109C750000100200102D
:101A50000C02001008B50248FFF7D8FF08BDC046C9
:101A60000902001037B572B6244B00215960196184
:101A7000234B04221A60234B8E2292009D5880240F
:101A8000E4002C439C509D58802464002C439C50BF
:101A900001225A671C1C5967616F0123194A1940BA
:101AA000FAD1116753675167616F0123154A0B40E3
:101AB000FAD15364516C8E2193608900136753608F
:101AC0005558114C2C400194019C80252C430194C5
:101AD000019DC82424022C435450A02284211206C4
:101AE000890153500949535009495350094B986093
:101AF000001C01688D464068804737BD004000A04B
:101B000010E000E000800440FF25000004210000F8
:101B10000821000000ED00E070470000F0B5C1B002
:101B20000E1C00F03FFE00F049FE8023DB029B1BF1
:101B3000051E9D4200D91D1C00F02AFE134801F02D
:101B400067FE0024AC421DD280277F006846391C06
:101B500000F002FEFF2804D82B1BBB4201D90C4821
:101B600006E0A019694602F04FFD002804D009489C
:101B700001F04EFE012006E001340748FF3401F079
:101B8000CFFDDFE7002041B0F0BDC0460677000082
:101B9000127700002D7700007F770000534B73B55C
:101BA00001261E70524B00241C80524DFC23DB008A
:101BB0002B8000F025FE211C201C00F051FE301C63
:101BC00001F004FD0094019406F037FB4A4804211B
:101BD00000F09CFDA0420FD100F0E4FD082040423F
:101BE00000F0C2FD0421684600F0B6FD042101A802
:101BF00000F0B2FD00F0CCFD404C414B22689A420F
:101C000000D0404C22689A4200D03F4C22689A4251
:101C100000D03E4C22689A4217D020235B423C48B9
:101C20002B8001F0F5FD009B002B03D0394B019A6E
:101C30009A4242D8384801F0EBFD384801F0E8FDFF
:101C4000FC23DB002B80364822E0364B36482B80C5
:101C500001F066FD01235B4260680A212B8001F0E0
:101C6000DDFD009B6268934227D8A068FFF7FAFE6B
:101C700017E0FFF7C5FE002836D1FFF7BBFE0028AE
:101C8000F7D000980199FFF749FF002828D027488E
:101C900001F0BEFD05E0FFF761FEFFF7A5FE00289D
:101CA00004D1FFF7A1FE0028F5D01DE0FFF79CFE50
:101CB000002819D0FFF752FEF8E71D4B1D482B8076
:101CC00001F02EFD01235B4200980A212B8001F0D8
:101CD000A5FDFC23DB0018482B8001F099FDCCE723
:101CE000164801F095FD87E773BDC046240100103A
:101CF0002A0500101E010010F3770000F4FF030016
:101D00001EAB07B004FF030004FE030004F0030051
:101D1000FB770000FF7F03000F780000B066000033
:101D200026780000FF070000417800004B78000093
:101D30001FF8FFFF717800008578000067780000C9
:101D4000F8B5012001F042FC494B00261E8000F04E
:101D500057FD484C484B4948238001F0CBFB484D88
:101D600001232B70474BFC271E70474B3021FF008F
:101D700060201E70278001F0D7FC444801F0D0FCA1
:101D80003821602001F0D0FC414801F0C9FC40211D
:101D9000602001F0C9FC3F4801F0C2FC48216020EE
:101DA00001F0C2FC3C4801F0BBFC6021282001F09E
:101DB000BBFC0126394801F0B3FC76423848268046
:101DC00001F0AEFC3748278001F0AAFC0223364818
:101DD00026802B7002F0C0FC431EDBB20324042BD0
:101DE00000D8041C02F0E2FC86B2FFF7B7FD6820C1
:101DF000782101F099FC201C0A2101F0EFFC02F08F
:101E0000D5FCFA229200B318984203D902F0CEFC16
:101E1000013C86B201F05EFF002808D001F05AFFB5
:101E2000041E02D0FFF79AFDF8E7FFF7B7FE01F0B6
:101E300045FF002807D001F041FF002802D0FFF73E
:101E40008DFDF8E7041C01F03FFF002806D001F0EB
:101E50003BFF002804D0FFF781FDF8E7002CC4D138
:101E600001232B7000F0CCFC002001F0AFFBF8BD8B
:101E70002A0500101E01001000F8FFFF3872000054
:101E8000240100102501001020010010AA78000094
:101E9000AF780000B4780000B9780000BE78000088
:101EA000C4780000C8780000A20F0000F0B5914C83
:101EB0001F1C23888BB05211061C0D1C0993029223
:101EC000002F06D0002132220091081C131C00F0C4
:101ED000BBFC029A032A02DCFC23DB0009E0029B24
:101EE000042B02D120235B4203E0029A042A01DD85
:101EF000814B2380002F16D001F060FB041C0120D1
:101F000001F064FB01F02EFD291C021C1439701E27
:101F1000C0B2C9B20A2301F065FC784801F000FCA8
:101F2000201C01F053FB029B724F002B01DC744B11
:101F30003B80ADB2734C039501232DB2221C30B20D
:101F40000093291C00F096FC029A0695012A01DCF8
:101F50006B4B3B80B6B204960836012536B2301C76
:101F60000699221C2B1C009500F084FC039B009515
:101F7000043B1AB20592111C2B1C301C221C00F0D1
:101F800079FC029B022B01DC5D4B3B80049E01250A
:101F9000103636B2301C0699221C2B1C009500F01E
:101FA00069FC301C0599221C2B1C009500F062FC7A
:101FB000039B0095083B1AB20792111C2B1C301C86
:101FC000221C00F057FC029B032B02DC4C4A494BBD
:101FD0001A80049E4B4D1836012436B2301C0699E7
:101FE0002A1C231C009400F045FC301C05992A1C77
:101FF000231C009400F03EFC301C07992A1C231C73
:10200000009400F037FC039B00940C3B1AB208923A
:10201000111C231C301C2A1C00F02CFC029B042BDE
:1020200002DC374A334B1A80049E0124203636B234
:10203000301C06992A1C231C009400F01BFC301C49
:1020400005992A1C231C009400F014FC301C0799ED
:102050002A1C231C009400F00DFC301C08992A1C3B
:10206000231C009400F006FC039F2A1C103F3FB283
:102070000094301C391C231C00F0FCFB029A052A3A
:1020800002DC1F4B1B4A1380049E1E4D2836012480
:1020900036B2301C06992A1C231C009400F0EAFB7F
:1020A000301C05992A1C231C009400F0E3FB301C13
:1020B00007992A1C231C009400F0DCFB301C0899B3
:1020C0002A1C231C009400F0D5FB301C391C2A1C50
:1020D000231C009400F0CEFB03992A1C1439231C06
:1020E00009B20094301C00F0C5FB099A014B1A801C
:1020F0000BB0F0BD1E01001000F8FFFF5779000083
:102100008A520000F37E0000F0B5012085B001F096
:102110005DFA9D4B00221A7001F024FCFA200001A8
:1021200002F01AFB041C03F04FFD984B98491C80E9
:10213000051C02F0B1FE002801D0FF2000E07F2046
:1021400001F0FCFB0024201C03F0E2FC291C02F03F
:1021500099FE002805D020B2013401F0B9FBE4B2A9
:10216000F1E78C4B18708C4802F0F6FA431EDBB294
:10217000051C092B00D9894D02F018FB012180B202
:10218000039002910124864B1B78002B03D0002C76
:1021900001D0002D22D101F0E5FB041CFA20000142
:1021A00002F0DAFA061C201C03F00EFD051C301CA0
:1021B00003F0AEFC011C281C02F054FE002804D1E0
:1021C000FA20E1B2000102F0D0FA20B201F080FB67
:1021D0000020011C00F044FB05B0F0BD02F0E6FA5F
:1021E0000399FA2292008B18984208D902F0DEFA7D
:1021F0006C4A80B2AB185A1E93410390ED1A012C21
:1022000003D0022C00D1A0E0BDE7029B664C002B5E
:1022100034D0012700F0F4FA7F42102120202780DB
:1022200000F01EFB614801F07BFA9921282000F0A4
:1022300017FBFC265E4801F073FAF6005D48268025
:1022400001F06EFA5C48278001F06AFA58210020FC
:10225000268000F005FB594801F0DAFA584E301C90
:1022600001F0D6FA301C01F0D3FA301C01F0D0FA9C
:10227000301C01F0CDFA534801F0CAFA3020992100
:1022800000F0EEFA504E3378032B02D801235B4264
:1022900000E04E4B238002234D4A0093A4200123EB
:1022A000302100F0E7FA3621182000F0D9FA494829
:1022B00001F036FA1820422100F0D2FA3378032BCD
:1022C00001D9454800E04548FC2701F029FAFF0004
:1022D0000223434A2780A42000936021012300F0B9
:1022E000C9FA6621182000F0BBFA3E4801F018FA3E
:1022F0001820722100F0B4FA01F034FB7F2802DDCF
:10230000324B238000E027802F4B274C1A78042A79
:1023100003D120235B42238003E0072A01D1062258
:102320001A700A21307801F059FA2F4801F0F8F9B3
:10233000FC23DB00238001F015FB7721021C002326
:102340007020FFF7B3FD02241DE7FFF707FBFFF73F
:10235000DFFA01F0B3FC071E13D1201CFFF7F4FADB
:10236000061E04D001F0BCFA0C4D02970AE7FFF7F5
:10237000EBFA002800D106E701F0CAFA074D0296F1
:1023800000E70024FFE6C046250100104C180010AD
:102390000000FE4226020010A30F0000FFFF000015
:1023A000240200100100FFFF1E010010D37800007E
:1023B000EC770000E7780000E9780000F47800008E
:1023C0000F7900002A7900004E18001000F8FFFF76
:1023D000AF7E0000A7770000457900004F7900002C
:1023E000D17E00005A7900005779000008B5094BEA
:1023F000012200201A7001F0E9F8074801F07AF88C
:1024000002F0C4F902F0E8F901F0C2FB02F0D4F9DD
:1024100008BDC04624020010D06B0000014B1878A4
:102420007047C0462402001037B50024251C02F076
:10243000BDF9274B1A689042F9D91E301860012C5B
:102440000BD0002C02D0022C23D039E0214B201CD1
:102450001C8000F0E3F9012432E0FC21EAB2C9005B
:10246000002001F00BFA1C4B1C4A188010785178A0
:102470006E234008181A490858231C35591A00942D
:10248000231CADB200F0F6F9FE2D19D90025022467
:1024900016E0114BFC22D2001A80104A6E231078ED
:1024A00051784008181A49085823591A01230093F3
:1024B00000F0E0F93F350A4BADB29D4200D9FF2450
:1024C000FFF792FA002801D1292CB0D937BDC046B8
:1024D000BC1B00102A0500101E010010A579000089
:1024E000FF03000008B57F2001F028FA034B7F228C
:1024F0001A80034BFF221A7008BDC0464C1800100A
:102500001C020010F7B5FFF771FF2C4B32221A7036
:102510002B4B01251D602B4BFF241C70FFF7E2FFA6
:10252000FFF7C0F9201CFFF7BEF9FFF7EDF9FFF741
:10253000EFF9FFF7BBF900F08EF9FFF775FF281CE4
:1025400001F044F8204F00243C8000F059F91F4E60
:10255000301C00F0CFFF281C01F038F81C4BFC2287
:10256000D2001A803C8000F04BF9301C00F0C2FF12
:10257000184F194E3C703570FFF7E2FBFFF7C4FDB2
:1025800000F08EFB58230093201C211C221C6E237C
:1025900000F0DEFB114B1879002802D0FFF7B8F9E4
:1025A000F8E701F013F80E4A012313700D4A0E48A4
:1025B0003B703370137000F09DFFF7BD25020010D3
:1025C000280200101C0200102A05001038720000BA
:1025D0001E0100102501001020010010FF01001055
:1025E000240100101D010010D46E0000F7B51D4A33
:1025F0001378002B34D000240B2B02D80C24E41ABF
:10260000E4B2194B012700201F7000F0BFFB174DEB
:1026100055262B780322F11A61180333009200200B
:10262000542200F02AFF381C00F0B0FB2B78032264
:10263000F61AA119033300920020542200F0B9FECB
:102640000B4B04221A802B78E41A0A4B57341C8057
:10265000094B186801F064F8024A1378013B1370C3
:10266000F7BDC0463002001024010010A102001086
:10267000C4040010B804001020020010F0B587B0A8
:1026800005930CAB039104921F78061C02F08EF8A0
:10269000164B1A78164B1C68211A164C914212D907
:1026A000216800290FD082181A60134B01251A687F
:1026B00001321A6000232360FFF7F6F8FFF728F9CC
:1026C000FFF706F90EE022680025AA420AD1FFF7BB
:1026D0008DFF059B0097301C0399049A00F038FB8E
:1026E00001232360281C07B0F0BDC046250200105E
:1026F0002C020010280200101802001008B5024831
:1027000000F00AFF08BDC0462702001070B50F4C4C
:10271000061C23780D1C102B0BD0301C2570FDF7E8
:10272000D9FF051E0CD10A48311C02F0EFFA2B1C10
:1027300009E0084805F0BEFC01230028EDD002E0C6
:10274000082323700123181C70BDC0461C01001013
:102750007C0200103402001013B56C460634221CB3
:10276000FDF7F2FF208816BD08B5074B002804DAF4
:10277000DA6941428A4200D25042DB69C018FEF752
:1027800049F8024B187008BD340200108B0200108B
:1027900008B50020FEF73EF8014B187008BDC04692
:1027A0008B02001008B5034B186AFEF733F8024B92
:1027B000187008BD340200108B020010014BD8695C
:1027C0007047C0463402001013B50123074C5B422A
:1027D00081220093201C064B06495201FEF7F0F9B6
:1027E000201C0549054AFEF743FB13BD6402001097
:1027F000180C0000241200009D0B000000010010C6
:1028000008B5002001F036FB024A00231380024A7B
:10281000138008BDC4040010B804001008B501F00E
:1028200029FB08BD064B10B51B880F2B04D8054C9F
:102830005B001B5B934201D001F090FC10BDC046D1
:1028400028010010AC02001013B504AC24880094D9
:1028500001F0B4FC13BD08B501F074FB08BD000025
:10286000024B1880024B19807047C046C404001008
:10287000B8040010F0B593B00B9118A909780E9028
:102880000C9111780A91517802320D910792012B27
:1028900074D10A9B00220733DB100893019201993F
:1028A0000A9A0BB2934200DB02E1DA17520FD218F8
:1028B000D210D2B209927F4A134004D50822013BBC
:1028C0005242134301331BB280221A410E9B0199DD
:1028D0009BB289B2029303914B0002999BB20F9273
:1028E0005A1892B210920A1C01329B189BB2119393
:1028F00000240D9923B28B423DDA089A099953437B
:102900004AB20799CB189B5C0F9A1A4231D00C9BA4
:10291000694D012B08D10399029A0B9B8818E11885
:1029200000B209B22A8822E00B9963008EB29BB2F2
:10293000109A9F1904933FB213B2181C2A88391CAD
:102940000593FFF76FFF11992A880BB2181C391CE9
:102950000693FFF767FF049A0136961936B22A8864
:102960000598311CFFF75EFF2A880698311CFFF797
:1029700059FF0134BDE7019A01328FE7042B00D0E3
:1029800096E00023039303990D9A0BB2934200DB68
:102990008EE00B9B89B29BB20593059A4B00D3182E
:1029A0009BB206910E9A99B201339BB292B20993EF
:1029B0000023089104920292019301990A9A0BB2A2
:1029C000934272DA07993D4B0A781B681211520044
:1029D000D45A0C9A022A1ED1019B04995E00089ACF
:1029E0008E19B6B235B217B2013636B2281C391C70
:1029F000221CFFF717FF301C391C221CFFF712FFA7
:102A00000999301C0BB21E1C191C221CFFF70AFF6F
:102A1000281C311C05E0029A069B10B2059A9918F1
:102A200009B2221CFFF7FEFE079B0C991A780F23B0
:102A30001A40224B52001B68D45A02291FD1019A16
:102A4000049B56009E190899B6B2B51C2DB20FB260
:102A5000033636B2281C391C221CFFF7E3FE301C5B
:102A6000391C221CFFF7DEFE099A301C13B21E1C13
:102A7000191C221CFFF7D6FE281C311C06E0029808
:102A8000069B059A0130991800B209B2221CFFF783
:102A9000C9FE079B01330793019B02339BB201934D
:102AA000029B02339BB2029387E7039B013369E7E2
:102AB00013B0F0BD070000801E010010B404001028
:102AC000F0B5704B8FB01B680D905C780191187851
:102AD0000094082C05D0211C10394C1EA141C9B20C
:102AE00000E00021009DEC100C19211C4143013134
:102AF0004A4304329B185F1C1B78089400240C93F3
:102B00000694069C0C9D62B26BB29A4200DBAFE069
:102B1000089D3B78022D02D00137059304E07A78B6
:102B2000023712021A430592069D0D9CADB2A4B263
:102B30006B00E3189BB202949CB2013303959BB2E5
:102B4000002509940A930795079D009C6EB2A64242
:102B500000DB89E0059CE4073BD54B4B4B4C1B78D5
:102B6000022B1ED1019D760076190999B6B232B2B8
:102B70000DB20492281C22880499FFF753FE0A998B
:102B800001360BB2181C2288049936B20B93FFF75A
:102B900049FE2288281C311CFFF744FE22880B982E
:102BA00040E03B4B1B78002B0AD00098019D013878
:102BB0004019029A039D861BA91830B209B206E09B
:102BC000039D02996818019D00B2761931B22288DE
:102BD00040E0304C304B22881B8893423CD02A4B3B
:102BE0001B78022B20D1019D7600099C7619B6B284
:102BF00025B234B2281C211C0494FFF713FE0A9955
:102C0000244B0CB21A88201C0499FFF70BFE0136E6
:102C1000204936B20A88281C311CFFF703FE1D4DDF
:102C2000201C2A88311C15E0194B1B78002B0AD078
:102C30000098019C01380019039D029C861B2919EC
:102C400030B209B206E0039D029C2819019D00B232
:102C5000761931B2FFF7E6FD079B059C0133640846
:102C6000DBB2059407936FE7069D0135069548E7AB
:102C70000A4A00201056044A1B18107858430FB017
:102C8000F0BDC046C0040010240100101E01001059
:102C9000290500102A050010280100102501001048
:102CA000F8B5234A234F12783B88234CD8B2234EE1
:102CB000234D012A03D1FF21002B31D12BE0022A21
:102CC00006D103210840810008430101014327E0A8
:102CD000032A20D101211940206800D0FF21194A80
:102CE00001F030FF3988022319402268154BD018B3
:102CF000002900D0FF211A1C01F024FF3988042389
:102D00001940206803D0104AFF21801801E00E4BC3
:102D1000C0180C4A06E001010F2003400B43D9B252
:102D200020680A4A01F00EFF002333802B80F8BD93
:102D300021010010BC040010A4020010C404001003
:102D4000B8040010BA040000740900001F1300004A
:102D500008B5002805D1064B1868064B196801F024
:102D60008FFA054B1B78002B01D1FFF799FF08BDA7
:102D7000A4020010B4040010B004001008B502480A
:102D800000F064FD08BDC046D67600000F23184051
:102D9000014B18807047C04622010010114B30B51E
:102DA0001B8893421DD0104B84B21B789C4218D2D2
:102DB0000E4D89B22D788D4213D95B1059430C4BBF
:102DC000401040181B6880B2181801780F23E507DF
:102DD00002D599430A4303E00B4012011A43D2B2D1
:102DE000027030BD28010010260100102A010010D9
:102DF000A4020010F0B5284B87B01B6803905E78E2
:102E000005911878082E05D0311C10394C1EA141AF
:102E1000C9B200E00021F4100C19211C414301311A
:102E20004A4304329B18029403995C1C1B788DB2B0
:102E3000049303996A1A049952B24BB29A4224DA63
:102E4000029B2778022B01D0013403E0637802341F
:102E50001B021F4300210191019B59B2B14211DCB9
:102E6000059B28B2C91809B2FB0701D50B4B00E03E
:102E70000B4B1A78FFF792FF019B7F080133DBB2FF
:102E80000193E9E70135ADB2D3E7064A00201056B9
:102E9000181807B0F0BDC046C00400102201001091
:102EA000BC0400102501001030B5114B84B21B7812
:102EB0009C421BD20F4A89B212788A4216D95B1003
:102EC00059430D4B401040181B6880B21818037806
:102ED0000F210A4AE50703D512788B43134304E018
:102EE00012880B4012011343DBB2037030BDC046A1
:102EF000260100102A010010A40200102201001077
:102F000070B50F4B141C1B788AB2061C9A4202D370
:102F1000A2B29A4212D20B4B1A78B3B29A420DD98E
:102F2000A14202DD0B1C211C1C1C0D1CA54205DC52
:102F300029B2301CFFF7B8FF0135F7E770BDC04676
:102F40002A0100102601001070B50F4B161C1B78CB
:102F500082B20C1C9A4202D38AB29A4212D20B4B12
:102F60001A78B3B29A420DD9A04202DD031C201C8C
:102F70001C1C051CA54205DC28B2311CFFF794FF80
:102F80000135F7E770BDC046260100102A01001088
:102F900008B5002A04DA92B25118524209B212B2AC
:102FA000521812B2FFF7ACFF08BD10B50C1C002A76
:102FB00004DA93B218185A4200B212B281180139D9
:102FC00009B2221CFFF7C0FF10BDF8B5CE18041CD3
:102FD000171C36B2E7190D1C3FB2321CFFF790FFE9
:102FE000381C291C321CFFF78BFF391C2A1C201CA3
:102FF000FFF7AAFF391C321C201CFFF7A5FFF8BD04
:10300000F8B58418CD1824B22DB2002801DA002CAE
:103010002BDB164B1B78984201DB9C4225DA0029FA
:1030200001DA002D21DB124B1B78994201DB9D4216
:103030001BDAA04202DD031C201C1C1CA94202DD7D
:103040000B1C291C1D1CC643CF43F617FF1730402D
:10305000394006B20FB2A64207DA301C391C2A1CCE
:103060000136FFF74DFF36B2F5E7F8BD2601001037
:103070002A010010F0B5031C85B0002876D03C4A28
:103080001078834201DB431E1BB23A4A1278042AAD
:1030900006D1394909785943CC0F6118491008E025
:1030A000022A63D134490C785C43E117890F09196E
:1030B0008910324C304E258889B20395304DB44684
:1030C0002D882580002B28DD34780025E408624314
:1030D0002C1C0192C21A954217DA221C0E1BB6183C
:1030E000B6B20096171B019EBFB2B74208DA561C53
:1030F000244F0296009EBE5DBE54029FBAB2EDE719
:103100000135ADB20099141CE4E71F4B0027D95FCD
:1031100063461A7803B2002023E034789DB26243FC
:10312000D21001920024854217D2221C0E1BB61821
:10313000B6B20096171B019EBFB2B74208DA571C01
:103140000297104F009EBA5CBA55029FBAB2EDE7E3
:103150000135ADB20099141CE5E7674600203A78C6
:10316000011CFFF74DFF054B039C1C8005B0F0BD13
:103170002A01001021010010260100102201001078
:10318000BC0400102C050010B8040010F0B589B084
:103190000192069393B20122D21A5B0092B25B4273
:1031A00002929BB200220490059107930392039A26
:1031B00013B2019A934278DA029A13B2002B0CDB15
:1031C000019B013B1AB2079B019202339BB29AB258
:1031D0000792029A9B189BB20293039B029A9CB29D
:1031E00063000333D3189BB20293069B5B0713D58E
:1031F000049A059B96B2019A9DB297B2701C201852
:10320000791900B209B2FFF74FFE691CBE196118A7
:1032100030B209B2FFF748FE069B9B0713D5049A0C
:10322000059B96B2019A9DB297B2701C2018E91BBB
:1032300000B209B2FFF738FE691EBE19091B30B291
:1032400009B2FFF731FE069B1B0713D5049A019BB9
:1032500097B2059A9EB295B2691CB81B611800B26C
:1032600009B2FFF721FE781E001B751900B229B2C2
:10327000FFF71AFE069BDB0713D5049A019B97B252
:10328000059A9DB296B2711E781B091B013F00B2D0
:1032900009B23C1B751BFFF707FE20B229B2FFF7EE
:1032A00003FE039B0133039381E709B0F0BDF0B542
:1032B0008BB0089310AB009207910022995E012217
:1032C0000991009906908BB2D21A5B0092B25B42D0
:1032D00001929BB2002205930392039A009913B2C4
:1032E0008B4264DA01990BB2002B0CDB009B013B93
:1032F0001AB2059B00920233019A9BB299B29B18B5
:103300009BB205910193039B01999BB25D00ADB205
:1033100002932B1C0333CB18089A9BB2049501939C
:10332000D2071ED5069B0799009A9FB2099B8EB2C1
:1033300094B202999DB26200781C0818AA18311B39
:1033400000B209B212B2FFF723FE029A711E049B6B
:10335000891AAA1CE4199A1820B209B212B2FFF70E
:1033600017FE089989071ED5069A079B009997B200
:10337000099A9EB28CB2029B95B2781E6200C01A66
:10338000311BAA1800B209B212B2FFF701FE029A6D
:10339000711E049B891AAA1C3C1B9A1820B209B200
:1033A00012B2FFF7F5FD03990131039195E70BB0D8
:1033B000F0BDF0B589B01F1C0EAB061C00201C5ED2
:1033C0000D1C012C04DC301C3B1CFFF7FEFD52E001
:1033D000B1B2A3B20391019359185B005B4292B260
:1033E0009BB205939B1808B219B207910492291C4D
:1033F000079ABFB20290ADB2FFF7D7FD7B1EEB1864
:103400009BB219B20298079A0693FFF7CEFD059B6F
:10341000019ADF1955192DB23FB2301C291C3A1CF4
:10342000FFF7B6FD049E0398013E8619B6B230B28E
:10343000291C3A1CFFF7ACFD291C0298221C012311
:10344000FFF7A4FE0199221C761A36B2291C301C03
:103450000223FFF79BFE069A019B301CD51A2DB262
:10346000291C221C0423FFF791FE0298291C221C10
:103470000823FFF78BFE09B0F0BDF0B587B00E1C36
:103480000CA900254C5F012C03DC311CFFF7B8FDB3
:103490002EE0A5B292B203926A0080B20399524222
:1034A0002F1892B2013B04929BB23FB25218029085
:1034B000311C059312B21BB2381CFFF7A1FD049A10
:1034C000059903985318029A01381018AE19451B34
:1034D00028B236B21DB2311C221C01230095FFF721
:1034E000E6FE0095381C311C221C0223FFF7DFFE8C
:1034F00007B0F0BD054B18600278054B01321A7019
:103500004278044B01321A707047C046C004001064
:10351000BB040010A1020010124A134B10B5041C8A
:103520001A60FFF72BFC114B01221A70104BDC22A2
:103530001A80104BB02210481A80FFF7DBFF0F4BA8
:1035400011221A800E4A002313800E4A04211170A2
:103550000D4A201C13600D4A13609361136393643A
:1035600010BDC0462C050010A40200102805001054
:10357000AA020010C6040010D06B00002801001041
:10358000BC040010A8020010AC040010C804001015
:1035900008B5084B00B21B6809B29B78D21A064BDB
:1035A000D2B21B78002B02D0FFF78AFA01E0FFF7B6
:1035B00021FC08BDC004001028050010024B18783B
:1035C000431E9841C0B270472805001009490A4AB5
:1035D0000A4B002805D001200870DC211180B022A0
:1035E00005E00870064909781180064A12781A80A9
:1035F0007047C04628050010AA020010C60400103B
:10360000260100102A01001038B50B4B0B481B682F
:1036100004885B780A4A5800241A0A4811880078FE
:103620000DB240B2A54203DDC018FFF723FD02E052
:10363000C3185918118038BDC0040010C60400100A
:10364000B80400102001001038B52A4B041C1B6878
:10365000DA78002A03D0602801D9203CE4B20E2C8D
:1036600021D8201C01F05AFB441F1F1F1F1F1F1FC2
:103670000E1F081F1F1B44001F4B00221A80FFF75C
:10368000C3FF35E01C4A1B781088C01A1B4B80B260
:10369000108019782022C0B2FFF77AFF28E0164B7D
:1036A00000221A8024E0144D1549288809881B78C7
:1036B00002B2CB1A9A4209DB00232B80114B1B78F4
:1036C000002B15D0FFF7A0FF287800E0C0B20B4B0D
:1036D000221C1978FFF75CFF202C06D10A4B1B78BF
:1036E0005BB2002B01D0401001302B88C01828801D
:1036F00038BDC046C0040010C4040010B804001057
:10370000AA0200101D0100102501001010B5041CB4
:103710002078002803D00134FFF796FFF8E710BDAA
:1037200008B5FFF7F3FF08BD024B1880024B198064
:103730007047C046C4040010B8040010F0B500245F
:1037400089B0051C0E1CA04203D13020FFF77CFF7E
:103750001BE000AB281C0134311C1F1901F02CFBAD
:10376000013F3970281C311C01F0E2FA051EF0D12E
:10377000013C6B46185D092801D8303000E0373035
:10378000C0B2FFF761FF002CF2D109B0F0BD08B55F
:10379000002903D1C0B2FFF757FF02E0C9B2FFF71B
:1037A000CDFF08BD10B5041E03DA2D20FFF74CFF36
:1037B0006442201C0A21FFF7C1FF10BD08B5002993
:1037C00003D1C0B2FFF740FF07E00A2902D1FFF79B
:1037D000E9FF02E0C9B2FFF7B1FF08BD08B5FFF786
:1037E000EDFF08BD10B5044C208004480180101C7A
:1037F000191CFFF7E3FF10BDC4040010B80400104B
:1038000008B50D20FFF720FF0A20FFF71DFF08BDB8
:1038100008B5FFF77BFFFFF7F3FF08BD08B5FFF71B
:10382000B6FFFFF7EDFF08BD08B50248FEF774F9D3
:1038300008BDC046BA0400108910D21049011143D6
:10384000C010C302081C18437047000038B5041CA0
:103850000025A27820786178FFF7EEFF054B8022E3
:1038600058530235033492009542F2D1024A136054
:1038700038BDC046AC020010B404001070B5031C83
:103880001F2423400C40E41A24B2544324124E1146
:103890001C193F2543112B40C00A3540C912091A93
:1038A000ED1A55434A4312128018C243A4B2D217EC
:1038B000104022B2D2432D12D2175B191440C0021D
:1038C0002043DC43E41723405B01184380B270BD02
:1038D000C343DB171840014B188070474C18001089
:1038E00008B5084B1A780132D2B2072A00D907224C
:1038F0001A701B78044AD05C044B188000B2FFF7A2
:10390000E7FF08BD4E180010F97E00004C180010AB
:1039100008B5074B1A78002A01D0013A1A701B78B3
:10392000044AD05C044B188000B2FFF7D1FF08BDF9
:103930004E180010F97E00004C18001008B5002841
:1039400003DBFF2802DDFF2000E00020034B18808E
:10395000034B0022985EFFF7BBFF08BD2C0100104F
:103960004C180010014B18887047C0464C180010C6
:1039700008B50248FEF7D0F808BDC0464F18001041
:10398000014B01221A717047351A0010014B0022B9
:103990001A717047351A0010014B01225A71704795
:1039A000351A0010014B00225A717047351A001069
:1039B000014B01229A717047351A0010014B002209
:1039C0009A717047351A0010014B01225A707047E6
:1039D000351A0010014B00225A707047351A00103A
:1039E000014B0122DA707047351A0010014B00229A
:1039F000DA707047351A0010014B00229A70704738
:103A0000351A0010014B00221A707047351A001049
:103A100008B5054B9A79002A02D0FFF761FF01E053
:103A200001229A7008BDC046351A001008B5054B32
:103A30009A79002A02D0FFF76BFF01E001221A7089
:103A400008BDC046351A001008B50448FCF7DEFF73
:103A5000034B01221871034B5A6208BD3C1A001037
:103A6000351A0010004000A008B50448FCF7CEFF4E
:103A7000034B02225871034B5A6208BDE41900102F
:103A8000351A0010004000A008B50448FCF7BEFF3E
:103A9000034B04229871034B5A6208BD5018001062
:103AA000351A0010004000A008B50448FCF7AEFF2E
:103AB000034B08225870034B5A6208BD941900103A
:103AC000351A0010004000A008B50448FCF79EFF1E
:103AD000034B1022D870034B5A6208BDA018001087
:103AE000351A0010004000A038B50F48FCF78EFFD3
:103AF0000E4CA0710E48FCF789FFA379C0B220706C
:103B00000C4D002B0AD0002808D02B78002B01D1B7
:103B1000FFF7FEFE00232370012300E000232B703B
:103B2000054B20225A6238BD50180010351A00107B
:103B3000F4180010341A0010004000A038B50F48E7
:103B4000FCF764FF0E4CA0710E48FCF75FFFA379F1
:103B5000C0B2A0700C4D002B0AD0002808D02B78E2
:103B6000002B01D1FFF7BCFE0023A370012300E06E
:103B700000232B70054B40225A6238BD50180010AC
:103B8000351A001044190010341A0010004000A02B
:103B900010B52E4C2E49201CFCF74DFF201C2D4942
:103BA000FCF739FF2C4C2D49201CFCF744FF201C4E
:103BB0002B49FCF730FF2B4C2B49201CFCF73BFF1B
:103BC000201C2A49FCF727FF294C2A49201CFCF716
:103BD00032FF201C2849FCF71EFF284C2849201CD6
:103BE000FCF729FF201C2749FCF715FF264C274925
:103BF000201CFCF720FF201C2549FCF70CFF254C5E
:103C00002549201CFCF717FF201C2449FCF703FF63
:103C100000202349FDF76CF801202249FDF768F8E0
:103C200002202149FDF764F803202049FDF760F8E0
:103C300004201F49FDF75CF805201E49FDF758F8E0
:103C400006201D49FDF754F810BDC0463C1A00106F
:103C50008D39000081390000E4190010A5390000F9
:103C60009939000050180010BD390000B13900002A
:103C700094190010D5390000C9390000A0180010AF
:103C8000ED390000E1390000F4180010053A000099
:103C90002D3A000044190010F9390000113A0000D3
:103CA000493A0000693A0000893A0000A93A000048
:103CB000C93A0000E93A00003D3B0000014B187989
:103CC0007047C046351A0010014B58797047C046FE
:103CD000351A0010014B98797047C046351A00100C
:103CE00070B52648FFF718FC254E2649301CFCF716
:103CF00069FE254D254C291C221C301CFDF7B8F807
:103D0000234E2449301CFCF75DFE291C221C301C6C
:103D1000FDF7AEF8204E2149301CFCF753FE291C5C
:103D2000221C301CFDF7A4F81D4E1E49301CFCF768
:103D300049FE291C221C301CFDF79AF81A4E1B491B
:103D4000301CFCF73FFE291C221C301CFDF790F8AC
:103D5000174E1849301CFCF735FE291C221C301C5C
:103D6000FDF786F8144E1549301CFCF72BFE301C6D
:103D7000291C221CFDF77CF870BDC046F01800100D
:103D80003C1A0010841201006D09000000010010AF
:103D9000E419001070080100501800108814010088
:103DA00094190010941A0100A01800106C0601006C
:103DB000F4180010C4320100441900107C0E0100F8
:103DC000054A0649A0231B0699500549C0005850D2
:103DD000002199507047C046882000000700F8FF76
:103DE0008821000038B5A0248A23240604229B01E0
:103DF000E250074D80235B046351FFF7E1FF054A62
:103E000080235B01A350C046C046635138BDC04605
:103E1000042200008422000038B5A0248823240650
:103E200004229B01E250064D80235B046351FFF79F
:103E3000C7FF044A80235B01A350C046635138BDCD
:103E4000042200008422000010B5074C0749201C02
:103E5000FDF7CCFA201C0521FDF7A7FA201C044928
:103E6000FDF780FA10BDC0468C1A0010FC04020059
:103E70009A99993E10B5041C2020FFF7B3FF00204B
:103E8000FFF7CAFF2120FFF7ADFF0020FFF7C4FFB7
:103E90002220FFF7A7FF201CFFF792FFA023882214
:103EA0001B06042192019950094A80214904995026
:103EB000802149019950074B074CA0218020090619
:103EC00040010851C046013B8850002BF4D110BD81
:103ED00004220000409700008422000010B520203A
:103EE000FFF780FF0020FFF797FF2120FFF77AFF01
:103EF0000020FFF791FF2220FFF774FF0020FFF75B
:103F00005FFFA02388221B060421920199500A4AD0
:103F1000802149049950802149019950074B084C50
:103F2000A0218020090640010851C046013B88506D
:103F3000002BF4D110BDC0460422000040970000C1
:103F40008422000070B5794EA02501242D06FFF7CC
:103F50007BFFAC510A20FCF7C4FE754B0A20EC50E5
:103F6000FCF7BFFEAC510A20FCF7BBFE201CFFF79C
:103F700039FF8E20A040FFF74FFF0220FFF732FFEE
:103F80008020A040FFF748FF0320FFF72BFF694880
:103F9000FFF742FF0820FFF725FF6748FFF73CFFC8
:103FA0000C20FFF71FFF0020FFF736FF0F20FFF761
:103FB00019FF201CFFF730FF2020FFF713FF002020
:103FC000FFF72AFF2120FFF70DFF0020FFF724FF56
:103FD0001020FFF707FF0020FFF71EFF1120FFF75B
:103FE00001FF80204001FFF717FF0A20FCF779FE50
:103FF0003020FFF7F7FE0020FFF70EFF3120FFF71C
:10400000F1FEDB20FFF708FF3220FFF7EBFE002078
:10401000FFF702FF3320FFF7E5FE0020FFF7FCFE6D
:104020003420FFF7DFFEDB20FFF7F6FE3520FFF739
:10403000D9FE0020FFF7F0FE3620FFF7D3FEAF20B9
:10404000FFF7EAFE3720FFF7CDFE0020FFF7E4FE82
:104050003820FFF7C7FEDB20FFF7DEFE3920FFF731
:10406000C1FE0020FFF7D8FE0A20FCF73AFEFF2031
:10407000FFF7B8FE0320FFF7CFFE5020FFF7B2FE98
:104080002E48FFF7C9FE5120FFF7ACFE2C48FFF782
:10409000C3FE5220FFF7A6FE2A4D0520FFF7BCFE07
:1040A0005320FFF79FFE281CFFF7B6FE5420FFF7B2
:1040B00099FE2548FFF7B0FE5520FFF793FE234CED
:1040C0000320FFF7A9FE5620FFF78CFE201CFFF708
:1040D000A3FE5720FFF786FE1D48FFF79DFE5820E0
:1040E000FFF780FE281CFFF797FE5920FFF77AFEA6
:1040F000201CFFF791FEB020FFF774FE1548FFF774
:104100008BFEFF20FFF76EFE0020FFF785FE0720E5
:10411000FFF768FE1048FFF77FFEC820FCF7E1FDBF
:104120002220FFF75FFEFFF7D9FE70BD04220000DA
:104130008422000030100000080800000302000084
:10414000090A000021100000020600000307000019
:10415000070500000125000017100000F8B584B223
:10416000171CDB2C25D88DB2AF2D22D82020FFF7CD
:1041700039FE281CFFF750FE2120FFF733FE201CDC
:10418000FFF74AFE2220FFF72DFEA02488232406F5
:1041900004229B01E250074D802380265B047601B8
:1041A0006351381C6651FFF70BFE034BE650C046C7
:1041B0006651F8BD0422000084220000F0B585B0ED
:1041C0000AAC24880394904202DD041C101C221CBB
:1041D000994202DD0C1C191C231CDC2849DCB02987
:1041E00047DC141CDC2A00DDDC2422B202921A1CFB
:1041F000B02B00DDB022CD43ED17C64313B2F61746
:104200002940019306400DB2029B9E4231DC2020E2
:10421000FFF7E8FDA8B2FFF7FFFDB6B22120FFF7D8
:10422000E1FD301CFFF7F8FD2220FFF7DBFDA023A6
:1042300088221B069201042199500F4F80225204BC
:10424000DA5180225201DA512C1C019A94420DDA83
:104250000398FFF7B5FD0949A02380221B065201F0
:104260005A50C0460134DA5124B2EEE7013636B274
:10427000CAE705B0F0BDC046042200008422000059
:10428000F0B5DFB0059020200491FFF7ABFD0020D2
:10429000FFF7C2FD2120FFF7A5FD0020FFF7BCFDC1
:1042A0002220FFF79FFDA02388221B0692010421F4
:1042B0009950A24C802252041A51802252010025AA
:1042C0001A510395039E059D7210AA1800231178B8
:1042D000049E08114000805B1825ED186E46A85317
:1042E00006ADE8180F252940049E4900895BB030CF
:1042F000023301803732B02BE9D100250295029DAF
:1043000006AEA85B80278E4DA02636067F01FFF7FC
:1043100057FD7751C04637517751C046029B06AAD8
:10432000D218375150880192FFF74AFD7751C046A5
:1043300037517751C046019A37519088FFF740FDB9
:104340007751C04637517751C046019B3751D888C5
:10435000FFF736FD7751C04637517751C046019A75
:1043600037511089FFF72CFD7751C04637517751EF
:10437000C046019B37515889FFF722FD7751C0464F
:1043800037517751C046019A37519089FFF718FD90
:104390007751C04637517751C046019B3751D88974
:1043A000FFF70EFD7751C04637517751C046375160
:1043B000029E10360296B02EA1D100260296029ED1
:1043C00006AAB05A8027A02636067F01FFF7F8FC20
:1043D0007751C04637517751C046029B06AAD21882
:1043E000375150880192FFF7EBFC7751C0463751A7
:1043F0007751C046019A37519088FFF7E1FC775119
:10440000C04637517751C046019B3751D888FFF7D6
:10441000D7FC7751C04637517751C046019A375182
:104420001089FFF7CDFC7751C04637517751C04610
:10443000019B37515889FFF7C3FC7751C04637516C
:104440007751C046019A37519089FFF7B9FC7751EF
:10445000C04637517751C046019B3751D889FFF785
:10446000AFFC7751C04637517751C0463751029E55
:1044700010360296B02EA2D15EAE029632AE0196F2
:10448000019E80273088A02636067F01FFF798FC22
:104490007751C04637517751C046019A37515088FD
:1044A000FFF78EFC7751C04637517751C046019BCC
:1044B00037519888FFF784FC7751C04637517751C0
:1044C000C046019A3751D088FFF77AFC7751C04631
:1044D00037517751C046019B37511889FFF770FC5F
:1044E0007751C04637517751C046019A37515089AC
:1044F000FFF766FC7751C04637517751C046019BA4
:1045000037519889FFF75CFC7751C0463751775196
:10451000C046019A3751D089FFF752FC7751C04607
:1045200037517751C0463751019E029A1036019695
:104530009642A5D132AE019604E0C04604220000A6
:1045400084220000019E80273088A02636067F0145
:10455000FFF736FC7751C04637517751C046019A74
:1045600037515088FFF72CFC7751C04637517751AF
:10457000C046019B37519888FFF722FC7751C0460F
:1045800037517751C046019A3751D088FFF718FC50
:104590007751C04637517751C046019B3751188932
:1045A000FFF70EFC7751C04637517751C046019A4C
:1045B00037515089FFF704FC7751C0463751775186
:1045C000C046019B37519889FFF7FAFB7751C046E7
:1045D00037517751C046019A3751D089FFF7F0FB28
:1045E0007751C04637517751C0463751019E029AE4
:1045F000103601969642A5D1039D023503956E2D86
:1046000000D05FE65FB0F0BDF0B585B0061C039149
:1046100072B6474B984202D8050B030512E0454B92
:104620001C2598420DD8444B1B25984209D8434B72
:104630001A25984205D8424B002583426D41192323
:104640005D1B73045A4253413E4C3F4FDBB2029311
:104650003223236065603D4BA560201C391C9847C0
:104660003B68002B01D0012060E0029B002B04D1AD
:10467000E4239B029E4220D040E034232360344B4D
:10468000FA211B688900181C6560A560019300F081
:104690004FFB2E4BE060391C201C98473B68002BD9
:1046A000E1D1322323606560284BA560201C391CB2
:1046B00098473B68002BDBD0D5E73B232360E02302
:1046C0009B006360234BFA21A360214B890018688B
:1046D00000F02EFB1C4FE0601C4B201C391C98473F
:1046E0003B68002BBFD1322323606560174BA56068
:1046F000201C391C98473B68002BB4D1332323601E
:10470000039BFA21A36080235B00E360104B8900C8
:104710001868666000F00CFB0B4D2061291C201C02
:104720000A4B9847286800289DD162B605B0F0BDB5
:10473000FF7F0100FF7F0300FFFF0200FF7F0200F9
:10474000FFFF0100941B0010A81B0010F11FFF1FAA
:1047500018010010FF03000013B56C460734211C3C
:10476000012203F041FE207816BD07B56B46D971D2
:104770000733191C012203F011FE07BD024B1A6812
:104780000A321A607047C046B81B0010044B054A35
:1047900007215A6000229A601960034B1A60704723
:1047A00010E000E0FF520700B81B0010014B186832
:1047B0007047C046B81B001010B50020FCF7D4F9B4
:1047C000041CFDF785F8034B1878001900F05EFA19
:1047D00010BDC046FC01001008B58022A0231B06B6
:1047E000920199580420014399502A4A80219858EF
:1047F0004901014399509858802149040143995037
:104800009958012001439950234A2448995801435B
:10481000995023480021FCF775FD22480021FCF740
:1048200071FD21480021FCF76DFD20480021FCF7B7
:1048300069FD1F480021FCF765FD1E480021FCF7BB
:1048400061FD1D480021FCF75DFD1C480021FCF7BF
:1048500059FD1B480021FCF755FD1A480021FCF7C3
:1048600051FD19480021FCF74DFD18480021FCF7C7
:1048700049FD17480021FCF745FD16480021FCF7CB
:1048800041FD15480021FCF73DFD14480021FCF7CF
:1048900039FD08BD0420000008200000F8FF0700D3
:1048A0000007020004090200080B02000C0D0200C0
:1048B000100F020014110200181302001C15020050
:1048C0002017020024190200281B02002C1D0200E0
:1048D000301F020034210200382302003C25020070
:1048E00008B50A4B187801F06FF9011C084800F070
:1048F0006BFC084900F04CFEF621890500F048FEEB
:1049000000F0DEFA044B188008BDC04634010010E8
:10491000000070420044AC46C01B001007B5FDF714
:10492000F1FDFDF77BFD00280DD0582300200093FA
:10493000011C021C6E23FDF7A1FE0028F1D00248E5
:10494000FEF7EEFEEDE70EBD017F000008B5024860
:10495000FDF7E2F808BDC046C21B001000000000D1
:10496000F0B556464D4644465F46F0B4524A4F00B5
:104970007F0D83B0BE18041C0D1C89468A468046F4
:104980000197132E2ADC002E56DB4C4F021C3741B8
:104990003B1C0B4003439C46BB4667460B1C002F49
:1049A00013D0424B404A01F05FF9414A414B00F0BD
:1049B00039FA002807D0002D4EDB53465F46BB4333
:1049C0000022994690464B464246101C191C03B0E3
:1049D0003CBC90469946A246AB46F0BD332E0BDD5B
:1049E0000B1C8021021CC9008E42EED1291C01F053
:1049F0003BF9021C0B1CE8E7019F314ABB1801225E
:104A00005242DA4093465F46021C0B1C0742DCD040
:104A1000264B254A01F028F9254A264B00F002FAD8
:104A20000028D0D0002D1DDB42465B469A439046BD
:104A3000D1464B464246C8E71C4B1B4A01F014F9CD
:104A40001B4A1C4B00F0EEF90028BCD0002D17DBF0
:104A50000027B846B946B6E780235B0333415E19A9
:104A6000B246AAE7142E19D0164B019A9F1A0123B9
:104A7000BB401B199C420FD96F1CBA469846D3E71E
:104A80006B005B081C4302D10027B8469BE70E4F22
:104A900000239846B94696E79846C5E76B1C9A46A8
:104AA000C2E7C046C046C0469C7500883CE4377EDD
:104AB000000000000000000001FCFFFFFFFF0F00EE
:104AC000EDFBFFFF330400000000F0BFC046C0460E
:104AD00070B50E4B0E4D0024ED1AAD101E1CAC42ED
:104AE00004D0A300F35898470134F8E703F080FAA4
:104AF000084B094D0024ED1AAD101E1CAC4204D029
:104B0000A300F35898470134F8E770BDFC7F00001C
:104B1000FC7F0000FC7F00002480000008B5034BF0
:104B2000011C186800F05EF808BDC046980100102E
:104B300008B5034B011C186800F00CF808BDC0460E
:104B400098010010031C8218934202D0197001339F
:104B5000FAE7704730B5002940D004390B68002BC4
:104B600000DAC9181E4A1368141C002B02D14B60CE
:104B7000116033E099420FD208680A189A4205D1B1
:104B800013685268C01808604A6000E04B602160FA
:104B900024E08A4203D8131C5A68002AF9D11D6800
:104BA0005C198C420BD10968691858181960904239
:104BB00014D114685268091919605A600EE08C42C9
:104BC00002D90C23036009E008680C18944203D151
:104BD00014685268001908604A60596030BDC046C8
:104BE000C81B001070B50323CD1C9D430835061C5F
:104BF0000C2D01D20C2501E0002D3FDB8D423DD371
:104C0000204B1C681A1C211C002913D00868431B68
:104C10000DD40B2B02D90B60CC181EE08C4202D1B4
:104C2000636813601AE0486860600C1C16E00C1C96
:104C30004968E9E7144C2068002803D1301C00F0D3
:104C400053F82060301C291C00F04EF8431C15D08E
:104C5000C41C03239C4384420AD12560201C0B30D2
:104C60000722231D9043C31A0BD05A42E25008E09A
:104C7000211A301C00F038F80130EED10C233360DB
:104C8000002070BDC81B0010C41B001038B5104BAD
:104C9000051C1C68A36B002B15D11820FFF73EFFE5
:104CA0000C4BA06303800C4B43800C4B83800C4B5C
:104CB000C3800C4B0381052343810B238381012295
:104CC000002302614361A36B00221D615A6138BD5C
:104CD000980100100E330000CDABFFFF341200002E
:104CE0006DE6FFFFECDEFFFF38B5074C0023051C27
:104CF000081C2360FBF712FF431C03D12368002B21
:104D000000D02B6038BDC046CC1B0010031C0A78B5
:104D100001311A700133002AF9D1704702B471468B
:104D200049084900095C49008E4402BC7047C046EE
:104D3000002934D00123002210B488422CD301244E
:104D40002407A14204D2814202D209011B01F8E7E3
:104D5000E400A14204D2814202D249005B00F8E79C
:104D6000884201D3401A1A434C08A04202D3001BC8
:104D70005C0822438C08A04202D3001B9C082243FB
:104D8000CC08A04202D3001BDC082243002803D039
:104D90001B0901D00909E3E7101C10BC704700286B
:104DA00001D00020C04307B4024802A1401802907D
:104DB00003BDC046190000000029F0D003B5FFF77D
:104DC000B9FF0EBC4243891A1847C0467047C04617
:104DD0008446101C62468C46191C634600E0C0469F
:104DE0001FB501F02BFB002801D40021C8421FBDD4
:104DF00010B501F05BFA4042013010BD10B501F072
:104E00001DFB002801DB002010BD012010BDC046A5
:104E100010B501F013FB002801DD002010BD0120BA
:104E200010BDC04610B501F08BFA002801DC00204F
:104E300010BD012010BDC04610B501F081FA002858
:104E400001DA002010BD012010BDC0468446081CB8
:104E50006146FFE71FB500F04FFB002801D4002199
:104E6000C8421FBD10B500F0D5FA4042013010BD58
:104E700010B500F041FB002801DB002010BD01202F
:104E800010BDC04610B500F037FB002801DD002042
:104E900010BD012010BDC04610B500F0E5FA002895
:104EA00001DC002010BD012010BDC04610B500F08F
:104EB000DBFA002801DA002010BD012010BDC04639
:104EC0009E2110B5C905041CFFF7F0FF002803D18F
:104ED000201C00F0FDFD10BD9E21C905201C00F026
:104EE00081FC00F0F5FD80231B06C018F3E7C046E7
:104EF000F8B543024400C50F4E024800240E2A1C98
:104F00009B09000EC90FB6098D425BD0221A002AF8
:104F100000DC89E000281DD1002E00D075E0580784
:104F200004D00F221A40042A00D004338021C9047F
:104F300019402A1C00293AD00134FF2C00D17FE00F
:104F40009B015B0A5B02E4B2E405580AD2072043E6
:104F50001043F8BDFF2CE2D08021C9040E431B2A68
:104F600000DD2DE1311C2020D140821A9640721EB6
:104F700096410E439B1B5801D1D59B019F09381CBC
:104F800001F060FB421F974094425BDC141B1F231F
:104F90001B1B3A1C9F40611C3B1CCA405F1EBB414F
:104FA00013430024BBE7131EB9D100230022DB0802
:104FB000FF2C04D1002B43D08020C00303435B02AD
:104FC0005B0ABFE7211A002940DD002823D0FF2C0F
:104FD000A5D08020C00406431B2900DDEEE0301C74
:104FE0002027C840791A8E40711E8E4106439B19B6
:104FF000590100D493E70134FF2C55D071490122A7
:105000001A400B405B08134389E7013A002AB1D0EC
:10501000FF2CA4D183E7002E00D180E701390029BD
:10502000E5D0FF2CD8D17AE7002A1BD1621CD2B27E
:10503000012A4BDD9F1B7A0123D5F71A0D1C9EE731
:1050400000237FE75F4BA41A3B4068E7002946D165
:10505000611CC8B2012829DDFF2924D0F3185B08A0
:105060000C1C5CE7002C13D0FF2818D08024E4042B
:10507000524223431B2A4DDD0123F31A041C0D1C4D
:1050800079E7002F00D07AE70023002200248EE782
:10509000002B3BD0D243002AEFD0FF28EAD1331CAB
:1050A000FF240D1C3BE7FF24002380E7002C5CD18C
:1050B000002B00D180E0002E00D130E79B19580171
:1050C00000D42CE73F4A0124134028E7002C15D1D7
:1050D000002B40D1002E63D0331C0D1C1FE7002C89
:1050E00021D1002B54D0C943002904D0FF284CD033
:1050F0001B2958DD01239B19041C79E7002B19D1CA
:10510000002E48D0331C0D1CFF2408E7331C041C60
:105110000D1C04E71C1C2025D440AA1A93405A1EDB
:1051200093412343A9E7FF282FD08024E404494278
:105130002343DDE7FF24002E00D1F0E68022DB08C8
:10514000D203134204D0F608164201D1331C0D1CC1
:10515000DB00FF24E3E6002E00D1E0E69A1B5001BD
:1051600000D420E7F31A0D1CD9E6002B0DD0FF2444
:10517000002E00D1D3E68022DB08D2031342E7D011
:10518000F6081642E4D1331CE2E7331CFF24C6E6DE
:10519000331C041CC3E6802300229B04FF2406E783
:1051A000231C002203E71C1C2027CC40791A8B40CB
:1051B000591E8B4123439EE7331CB0E6012616E7B8
:1051C0000126D7E6FFFFFFFBF0B55F4656464D468A
:1051D0004446F0B446024500C00F85B00F1C760A65
:1051E0002D0E804641D0FF2D26D08024240400219E
:1051F0002643F6007F3D89468B46F90F7C027800F6
:10520000640A000E00918A463CD0FF2834D08023E7
:105210001B041C430023E4007F380193009F434696
:10522000019A7B4049469C4611430F2900D971E001
:10523000764F89007F58BF46002E3ED108220223B8
:1052400091469B46D9E75A46341CC24601920199C1
:10525000022937D0032900D1CFE0012900D0ABE0EB
:1052600053460B400022002632E0002E19D10421C3
:10527000012289469346C0E7221C531E9A410232FE
:105280000192CBE701270197002CC7D0201C01F029
:10529000D9F9431F9C4076235B420021181A0191E3
:1052A000BCE7301C01F0CEF97625431F9E406D42CD
:1052B00000232D1A99469B469FE70C23032199460C
:1052C0008B469AE7D446012367463B40FF220026DF
:1052D0007602D205700ADB071043184305B03CBCC8
:1052E00090469946A246AB46F0BD80260023F603C1
:1052F000FF22EDE700220026EAE78020C0030642F5
:105300003BD0044239D1061C26437602760A009B24
:10531000FF22DDE7281A039076016401A64239D303
:10532000361B1A2201230120311C5B007600002964
:1053300001DBB44201D8361B0343013A002AF3DCF7
:10534000741EA641341C1C43039A7F32002A27DDB9
:10535000630704D00F232340042B00D0043427011B
:1053600003D52B4B039A1C408032FE2A0BDD012310
:1053700061460B40FF220026AAE706437602760A22
:105380004346FF22A4E7A40101236746660AD2B27E
:105390003B409DE7039F1B22013F03970023C2E789
:1053A0007E23039F5B42DB1B1B2B07DD0123614632
:1053B0000B40002200268BE7D446C5E7221CDA40CA
:1053C000039B9E339C40231C5C1EA34113435A073E
:1053D00004D00F221A40042A00D004335F0105D5FF
:1053E000012361460B400122002671E79E016246BF
:1053F00001231340760A00226AE78026F60326433B
:105400007602760A5346FF2262E7C046707F0000AC
:10541000FFFFFFF74A02430270B55C0A550A4300DA
:105420004A001B0EC60F120EC90FFF2B05D0FF2A14
:1054300008D0012093420BD070BD0120002CFBD17D
:10544000FF2AF6D10120002DF6D101209342F3D19D
:10545000AC42F1D18E4205D0002BEDD1201C441E70
:10546000A041E9E70020E7E74A024302F0B55C0A01
:10547000550A43004A001B0EC60F120EC90FFF2B20
:1054800031D0FF2A34D0002B16D1604260418446CF
:10549000002A14D0002820D18E4217D1934215DC67
:1054A00004DBAC4212D80020AC4212D270427041F0
:1054B0004042012318430CE0002AEDD194466F428C
:1054C0006F416046002805D1002FE5D070420123CE
:1054D0001843F0BD0020002FFBD148424841404214
:1054E00001231843F5E7002CCBD002204042F0E71F
:1054F000002DC8D0F9E7C0464A024302F0B55C0A65
:10550000550A43004A001B0EC60F120EC90FFF2B8F
:1055100027D0FF2A29D0002B10D0002A15D194467D
:105520006F426F416046002815D00020002F04D143
:1055300048424841404201231843F0BD6042604167
:105540008446002AECD00028F2D18E4211D070425D
:1055500001231843F1E7002FF7D0704201231843CD
:10556000EBE70220002CE8D1D3E70220002DE4D1A4
:10557000D1E79342EBDC04DBAC42E8D80020AC423C
:10558000DBD270427041404201231843D5E7C04648
:10559000F0B55F4656464D464446F0B444024600D8
:1055A00083B00F1C640A360EC50F002E41D0FF2EAB
:1055B00022D080231B0400201C43E4007F3E82464F
:1055C0008046391C4B007F02C90F7F0A1B0E8B4699
:1055D0003BD0FF2B34D0802212041743FF007F3BC7
:1055E00000215A466A40019252460A430F2A63D864
:1055F0007A48920082589746002C3FD10822022315
:1056000092469846DDE70195404602282AD1019A44
:1056100001251540FF2300246402DB05600AED0725
:105620001843284303B03CBC90469946A246AB467B
:10563000F0BD002C27D10420012282469046C0E70D
:10564000391C4A1E91410231CBE70121002FC8D0FD
:10565000381C00F0F7FF431F9F4076235B421B1A64
:105660000021BEE7032800D1AEE001284FD1019808
:1056700042461040C5B200230024CDE70C2303208E
:105680009A4680469DE7201C00F0DCFF7626431FEB
:105690009C4076420023361A9A46984691E7802429
:1056A0000025E403FF23B7E75B463C1C01938846D3
:1056B000AAE73C1C8846A7E7250C24043A0C240CD6
:1056C0003F04F6183F0C211C231C794353436F43BE
:1056D0005543FB180A0C9B18B1469F4202D9802201
:1056E0005202AD1809041A04090C521894011B0C3B
:1056F000611E8C41920EED181443AD012C43230121
:1057000005D5012263080120144081441C434B4607
:105710007F33002B2DDD600704D00F222240042AA6
:1057200000D00434220103D52D4B1C404B4680335E
:10573000FE2B17DD019B01251D400024FF236BE795
:105740008020C003044208D0074206D1041C3C4319
:105750006402640A5D46FF235EE704436402640A50
:10576000FF2359E70198A4010125640ADBB2054033
:1057700052E77E235B424A469B1A1B2B05DD019BA9
:1057800001251D400024002346E7221CDA404B4639
:105790009E339C40231C5C1EA3411343580704D036
:1057A0000F221A40042A00D004335A0105D5019B68
:1057B00001251D40002401232EE701989C010125AD
:1057C000640A0540002327E78027FF03019B3C4331
:1057D000640201251D40640AFF231DE7B07F00001D
:1057E000FFFFFFF7F8B5C20F430244004D02480027
:1057F000240E161C9B09000EC90FAD09FF2800D10D
:1058000083E0012779408A425CD0221A002A00DC1A
:105810008EE000281ED1002D00D07AE0580704D079
:105820000F221A40042A00D004338021C904012227
:105830001940324000293AD00134FF2C00D183E0D6
:105840009B015B0A5B02E4B2E405580AD2072043DD
:105850001043F8BDFF2CE1D08021C9040D431B2A61
:1058600000DD31E1291C2020D140821A95406A1EBA
:1058700095410D435B1B5801D0D59B019F09381CF6
:1058800000F0E0FE421F974094425FDC141B1F2390
:105890001B1B3A1C9F40611C3B1CCA405F1EBB4146
:1058A00013430024BAE7131EB8D100230022DB08FB
:1058B000FF2C04D1002B47D08020C00303435B02A0
:1058C0005B0ABFE7211A002944DD002827D0FF2CFE
:1058D000A4D08020C00405431B2900DDF2E0281C71
:1058E0002027C840791A8D40691E8D4105435B19F8
:1058F000590100D492E70134FF2C59D07349012299
:105900001A400B405B08134388E7002D00D07AE76C
:1059100077E7013A002AADD0FF2CA0D17EE7002D19
:1059200000D17BE701390029E1D0FF2CD4D175E704
:10593000002A1BD1621CD2B2012A4BDD5F1B7A0107
:1059400023D5EF1A0E1C9AE700237BE75F4BA41ABE
:105950003B4063E7002946D1611CC8B2012829DD1C
:10596000FF2924D0EB185B080C1C57E7002C13D040
:10597000FF2818D08024E404524223431B2A4DDD23
:105980000123EB1A041C0E1C75E7002F00D076E7EC
:105990000023002200248AE7002B3BD0D243002AB8
:1059A000EFD0FF28EAD12B1CFF240E1C36E7FF2482
:1059B00000237CE7002C5CD1002B00D180E0002D7F
:1059C00000D12BE75B19580100D427E73F4A012497
:1059D000134023E7002C15D1002B40D1002D63D0BC
:1059E0002B1C0E1C1AE7002C21D1002B54D0C943CC
:1059F000002904D0FF284CD01B2958DD01235B1956
:105A0000041C75E7002B19D1002D48D02B1C0E1C4F
:105A1000FF2403E72B1C041C0E1CFFE61C1C202685
:105A2000D440B21A93405A1E93412343A9E7FF285A
:105A30002FD08024E40449422343DDE7FF24002DD6
:105A400000D1EBE68022DB08D203134204D0ED083C
:105A5000154201D12B1C0E1CDB00FF24DEE6002DBD
:105A600000D1DBE65A1B500100D41CE7EB1A0E1CD8
:105A7000D4E6002B0DD0FF24002D00D1CEE68022ED
:105A8000DB08D2031342E7D0ED081542E4D12B1C0A
:105A9000E2E72B1CFF24C1E62B1C041CBEE680237E
:105AA00000229B04FF2402E7231C0022FFE61C1CAB
:105AB0002027CC40791A8B40591E8B4123439EE707
:105AC0002B1CABE6012512E70125D3E6FFFFFFFB08
:105AD0004302590A4300C20F1B0E00207E2B0DDD2E
